:020000040800F2
:1000000000000220C5160008551600085716000803
:10001000591600085B1600085D1600080000000075
:100020000000000000000000000000005F16000853
:10003000611600080000000063160008651600083D
:1000400015170008151700081517000815170008E0
:1000500015170008151700086D1600081517000879
:1000600015170008151700081517000815170008C0
:1000700015170008151700081517000815170008B0
:1000800015170008151700081517000815170008A0
:100090001517000815170008151700081517000890
:1000A0001517000815170008151700081517000880
:1000B0001517000815170008151700081517000870
:1000C0001517000815170008151700081517000860
:1000D0001517000815170008151700081517000850
:1000E0001517000815170008151700081517000840
:1000F0001517000815170008151700081517000830
:10010000151700081517000815170008151700081F
:10011000151700081517000815170008151700080F
:1001200015170008151700081517000815170008FF
:1001300015170008151700081517000815170008EF
:1001400015170008151700081517000815170008DF
:1001500015170008151700081517000815170008CF
:1001600015170008151700081517000815170008BF
:1001700015170008151700081517000800000000E3
:0801800015170008151700080F
:1001880010B5054C237833B9044B13B10448AFF3C9
:1001980000800123237010BD0C0000200000000027
:1001A8007017000808B5034B1BB103490348AFF3A8
:1001B800008008BD00000000100000207017000833
:1001C80053B94AB9002908BF00281CBF4FF0FF31B6
:1001D8004FF0FF3000F072B9ADF1080C6DE904CEB4
:1001E80000F006F8DDF804E0DDE9022304B070470A
:1001F8002DE9F047089E04468846002B4BD18A42D9
:10020800154667D9B2FA82F24AB1C2F1200701FA5B
:1002180002F320FA07F7954047EA030894404FEAAB
:10022800154E230CB8FBFEF71FFA85FC0EFB17884A
:1002380043EA084307FB0CF1994209D9EB1807F187
:10024800FF3080F01B81994240F21881023F2B4415
:100258005B1AA4B2B3FBFEF00EFB103344EA03446E
:1002680000FB0CFCA44509D92C1900F1FF3380F0E0
:100278000781A44540F2048102382C4440EA074033
:10028800A4EB0C0400271EB1D4400023C6E90043A8
:100298003946BDE8F0878B4209D9002E00F0EB8083
:1002A8000027C6E9000138463946BDE8F087B3FAA9
:1002B80083F7002F47D18B4202D3824200F2FA80A3
:1002C800841A61EB030301209846002EE0D0C6E9AA
:1002D8000048DDE702B9FFDEB2FA82F2002A40F0F8
:1002E8008F80491B4FEA154E1FFA85F80127B1FB8D
:1002F800FEFC230C0EFB1C1143EA014308FB0CF126
:10030800994207D9EB180CF1FF3002D2994200F25A
:10031800CD808446591AA3B2B1FBFEF00EFB10142F
:1003280043EA044408FB00F8A04507D92C1900F15A
:10033800FF3302D2A04500F2B6801846A4EB0804A9
:1003480040EA0C409FE7C7F1200CBB4022FA0CFEA4
:100358004EEA030E01FA07F420FA0CF521FA0CF321
:100368004FEA1E482543B3FBF8F92C0C08FB193358
:100378001FFA8EFA44EA034309FB0AF49C4202FA84
:1003880007F200FA07F10BD91EEB030309F1FF305E
:1003980080F087809C4240F28480A9F1020973446E
:1003A8001B1BADB2B3FBF8F008FB103345EA03445E
:1003B80000FB0AFAA24508D91EEB040400F1FF333A
:1003C8006BD2A24569D90238744440EA0940A0FBBF
:1003D8000289A4EB0A044C45C2464B4654D351D07B
:1003E800002E69D0B1EB0A0564EB030404FA0CFC97
:1003F800FD40FC404CEA0505C6E90054002747E7E4
:10040800C2F1200320FA03F7954001FA02F021FA1D
:1004180003F34FEA154E3843010CB3FBFEF71FFAFE
:1004280085F80EFB173341EA034107FB08F38B42BB
:1004380004FA02F407D9691807F1FF3C2FD28B425E
:100448002DD9023F2944CB1A81B2B3FBFEF00EFB33
:10045800103341EA034100FB08F38B4207D96918BE
:1004680000F1FF3C17D28B4215D902382944C91A2A
:1004780040EA07473BE73746304609E70746E7E6DD
:100488001846FBE64145ABD2B8EB020A69EB0E020F
:1004980001381346A4E76046E9E7184695E767463A
:1004A800D1E781467CE702382C4447E7ACF1020CDF
:1004B8002B442FE7384608E73746E9E6704700BF80
:1004C80010B504460E4B18784FF47A73B3FBF0F36B
:1004D8000C4A1068B0FBF3F000F0A8F868B90F2CCC
:1004E80001D901200AE0002221464FF0FF3000F038
:1004F8005DF8034B5C60002000E0012010BD00BFE8
:10050800000000200800002008B50B4B1A6842F4D0
:1005180000721A601A6842F480621A601A6842F41B
:1005280080721A60032000F02FF80020FFF7C8FF40
:1005380001F062F8002008BD003C0240034A11683F
:10054800034B1B780B441360704700BF2800002042
:1005580000000020014B1868704700BF28000020E9
:1005680038B50446FFF7F6FF0546B4F1FF3F02D061
:10057800044B1B781C44FFF7EDFF401BA042FAD345
:1005880038BD00BF00000020074AD36823F4E063A9
:100598001B041B0C000200F4E060184340F0BF602D
:1005A80040F40030D060704700ED00E030B4174BE5
:1005B800DB68C3F30223C3F10704042C28BF042417
:1005C8001D1D062D18D9033B4FF0FF3505FA04F41D
:1005D80021EA0401994005FA03F322EA03031943C7
:1005E80000280BDB0901C9B200F1604000F5614049
:1005F80080F8001330BC70470023E5E700F00F00D7
:100608000901C9B2024B1954F4E700BF00ED00E03C
:1006180014ED00E000F01F02400901239340024A54
:1006280042F82030704700BF00E100E00138B0F127
:10063800807F0AD2064B5860064AF02182F82310C0
:100648000020986007221A6070470120704700BF99
:1006580010E000E000ED00E000230F2B00F2D7804F
:10066800F0B482B039E0072200E00022B2403A43F9
:100678000234674E46F82420664A1468EA4302EAC0
:1006880004064F6817F4803F01D045EA0406614C20
:100698002660646802EA04064F6817F4003F01D038
:1006A80045EA04065B4C6660A46802EA04064F68E3
:1006B80017F4801F01D045EA0406564CA660E4688A
:1006C80022404E6816F4001F01D045EA0402514C3E
:1006D800E26001330F2B00F2978001229A400C68E8
:1006E80004EA0205AA42F4D14C68022C01D0122C6B
:1006F80010D1DE08083650F826C003F00704A7001A
:100708000F24BC402CEA040C0C69BC4044EA0C04DD
:1007180040F8264004685F000326BE40F64306EA18
:10072800040C4C6804F00304BC4044EA0C04046064
:100738004C6804F1FF3CBCF1010F03D9112C01D026
:10074800122C10D1846806EA040CCC68BC4044EA38
:100758000C048460446824EA02024C68C4F3001460
:100768009C4014434460C26816408A68BA403243C9
:10077800C2604A6812F0805FABD000220192264A1C
:10078800546C44F480445464526C02F480420192E4
:10079800019A9C08A61C1E4A52F8267003F0030210
:1007A80096000F22B24027EA02071C4A90423FF403
:1007B8005CAF02F5806290421AD002F580629042E6
:1007C80018D002F58062904216D002F580629042FD
:1007D80014D002F58062904212D002F580629042F5
:1007E80010D002F5806290423FF43DAF08223DE709
:1007F80001223BE7022239E7032237E7042235E7E3
:10080800052233E7062231E702B0F0BC7047704793
:1008180000380140003C014000380240000002401E
:100828000369194201D1002070470120704712B9AD
:1008380009048161704781617047704708B5054BAD
:100848005B69034200D108BD024B5861FFF7F5FF11
:10085800F9E700BF003C0140002800F0BB8170B5FB
:1008680082B00446036813F0010F3BD0A74B9B6886
:1008780003F00C03042B2CD0A44B9B6803F00C034F
:10088800082B21D06368B3F5803F4FD0B3F5A02F74
:1008980052D09E4B1A6822F480321A601A6822F4E9
:1008A80080221A606368002B50D0FFF753FE05467C
:1008B800964B1B6813F4003F14D1FFF74BFE401B07
:1008C8006428F5D903208AE1904B5B6813F4800F04
:1008D800D8D08E4B1B6813F4003F03D06368002BFD
:1008E80000F07A81236813F0020F55D0874B9B687C
:1008F80013F00C0F3ED0854B9B6803F00C03082BBC
:1009080033D0E368002B68D0814B01221A60FFF7CF
:1009180021FE05467D4B1B6813F0020F54D1FFF7EB
:1009280019FE401B0228F5D9032058E1774A1368BD
:1009380043F480331360B5E7744B1A6842F480229D
:100948001A601A6842F480321A60ABE7FFF702FEB9
:1009580005466E4B1B6813F4003FC3D0FFF7FAFD42
:10096800401B6428F5D9032039E1684B5B6813F410
:10097800800FC6D1654B1B6813F0020F04D0E368E3
:10098800012B01D001202AE1604A136823F0F80303
:10099800216943EAC1031360236813F0080F40D0AC
:1009A800636963B35B4B01221A60FFF7D3FD054609
:1009B800564B5B6F13F0020F33D1FFF7CBFD401B93
:1009C8000228F5D903200AE1504A136823F0F803F6
:1009D800216943EAC1031360DEE74D4B00221A6028
:1009E800FFF7B8FD0546494B1B6813F0020FD3D03B
:1009F800FFF7B0FD401B0228F5D90320EFE0454B77
:100A080000221A60FFF7A6FD0546404B5B6F13F006
:100A1800020F06D0FFF79EFD401B0228F5D90320E0
:100A2800DDE0236813F0040F79D0384B1B6C13F00A
:100A3800805F33D100230193344B1A6C42F080520B
:100A48001A641B6C03F080530193019B0125324B00
:100A58001B6813F4807F23D0A368012B34D0052BA7
:100A680038D02A4B1A6F22F001021A671A6F22F047
:100A780004021A67A368002B36D0FFF76BFD064601
:100A8800224B1B6F13F0020F48D1FFF763FD801B49
:100A980041F288339842F3D90320A0E00025D6E735
:100AA8001D4A136843F480731360FFF753FD06462D
:100AB800194B1B6813F4807FCED1FFF74BFD801BC9
:100AC8000228F5D903208AE0104A136F43F0010386
:100AD8001367CFE70D4B1A6F42F004021A671A6FBB
:100AE80042F001021A67C5E7FFF734FD0646074BD7
:100AF8001B6F13F0020F11D0FFF72CFD801B41F282
:100B080088339842F3D9032069E000BF00380240D7
:100B180000004742800E474200700040E5B9A369D3
:100B2800002B5BD0304A926802F00C02082A58D099
:100B3800022B17D02D4B00221A60FFF70BFD04463D
:100B4800294B1B6813F0007F42D0FFF703FD001B01
:100B58000228F5D9032042E0234A136C23F080537E
:100B68001364DCE7214B00221A60FFF7F3FC05460B
:100B78001D4B1B6813F0007F06D0FFF7EBFC401BF2
:100B88000228F5D903202AE0E369226A1343626A3E
:100B980043EA8213A26A5208013A43EA0243E26A2C
:100BA80043EA0263104A5360104B01221A60FFF7B0
:100BB800D1FC04460C4B1B6813F0007F06D1FFF7ED
:100BC800C9FC001B0228F5D9032008E0002006E034
:100BD800002004E001207047012000E0002002B05E
:100BE80070BD0120FBE700BF0038024060004742AB
:100BF800324B9B6803F00C03042B5CD0082B01D00C
:100C08002F4870472DE9F04B2C4B5A6802F03F02F1
:100C18005B6813F4800F2BD0284B5B68C3F38813F1
:100C28001E4600275C010025E41A65EB0705A901AB
:100C380041EA9461A001001B61EB0501CB0043EA86
:100C48005073C400A01943EB07014B0243EAD05389
:100C58004402204619460023FFF7B2FA174B5B6897
:100C6800C3F3014301335B00B0FBF3F0BDE8F08B45
:100C7800124B5B68C3F388131E4600275C010025EE
:100C8800E41A65EB0705A90141EA9461A001001B7C
:100C980061EB0501CB0043EA5073C400A01943EB94
:100CA80007018B0243EA9053840220461946002329
:100CB800FFF786FAD2E70348704700BF00380240C2
:100CC8000024F40000127A00002800F09D8070B51E
:100CD80004464F4B1B6803F00F038B4209D2CBB27B
:100CE8004B4A1370136803F00F038B4201D00120A5
:100CF80070BD236813F0020F17D013F0040F04D04F
:100D0800444A936843F4E0539360236813F0080F50
:100D180004D0404A936843F4604393603D4A936823
:100D280023F0F003A068034393600D46236813F093
:100D3800010F32D06368012B21D09A1E012A25D9D0
:100D4800344A126812F0020F60D032498A6822F0E1
:100D5800030213438B60FFF7FDFB06462D4B9B6890
:100D680003F00C036268B3EB820F16D0FFF7F2FBB7
:100D7800801B41F288339842F0D90320B8E7254A0E
:100D8800126812F4003FE0D10120B1E7214A12684D
:100D980012F0007FD9D10120AAE71D4B1B6803F090
:100DA8000F03AB4209D9EAB2194B1A701B6803F05A
:100DB8000F03AB4201D001209AE7236813F0040F18
:100DC80006D0144A936823F4E053E1680B43936018
:100DD800236813F0080F07D00E4A936823F4604382
:100DE800216943EAC1039360FFF702FF094B9B683F
:100DF800C3F30313084AD35CD840084B186000209B
:100E0800FFF75EFB002073E70120704701206FE7C2
:100E1800003C024000380240D017000808000020BB
:100E280030B583B00446036813F0050F06D1236874
:100E380013F0020F2ED1002003B030BD494B002221
:100E48001A60FFF787FB0546474B1B6813F0006FD6
:100E580006D0FFF77FFB401B0228F5D90320EBE7FC
:100E68006268A3681B0743EA82133F4AC2F88430CA
:100E78003C4B01221A60FFF76DFB05463A4B1B6895
:100E880013F0006FD3D1FFF765FB401B0228F5D99B
:100E98000320D1E700230193334B1A6C42F08052B0
:100EA8001A641B6C03F080530193019B2F4A13684B
:100EB80043F480731360FFF74DFB05462B4B1B680B
:100EC80013F4807F06D1FFF745FB401B0228F5D9B4
:100ED8000320B1E7244B1B6F13F4407312D0E26870
:100EE80002F440729A420DD01F4B1A6F22F44072DE
:100EF8001F4901200860002008601A671B6F13F063
:100F0800010F13D1E36803F44072B2F5407F1ED09D
:100F1800154A936823F4F813936013490B6FE2683A
:100F2800C2F30B0213430B67002085E7FFF712FBA0
:100F380005460D4B1B6F13F0020FE3D1FFF70AFBB9
:100F4800401B41F288339842F3D9032074E70649DD
:100F58008A6822F4F81223F0704323F44073134391
:100F68008B60DAE7680047420038024000700040B2
:100F7800400E474238B504460268D36823F0A00300
:100F8800D360FFF7E7FA05462368DB6813F0200F04
:100F980007D1FFF7DFFA401BB0F57A7FF4D90320B9
:100FA80000E0002038BD38B50368DA6812F0400F59
:100FB80001D0002038BD04464FF0FF32DA60FFF759
:100FC800C9FA05462368DB6813F0400F07D1FFF71D
:100FD800C1FA401BB0F57A7FF4D90320EAE7002074
:100FE800E8E738B500285CD00446437F002B40D0A2
:100FF800022363772368CA225A62236853225A62FB
:101008002046FFF7D0FF0546002836D122689368AE
:1010180023F4E00323F04003936021688A6863683F
:10102800206903436069034313438B602368E268C4
:101038001A6122681369A16843EA014313612268AF
:10104800D36823F08003D36023689B6813F0200FD4
:101058001BD02268136C23F4802313642268136C5A
:10106800A1690B4313642368FF225A620123637743
:1010780009E0037700F0DCFABAE72368FF225A6236
:10108800042363770125284638BD2046FFF772FF01
:101098000028DED02368FF225A62042363770125E3
:1010A800F1E70125EFE7002302E001330A38C0B277
:1010B8000928FAD81B01DBB21843704770B5037FC3
:1010C800012B66D001230377022343773AB94B7883
:1010D80013F0100F03D003F0EF030A334B700E46E2
:1010E8000446002A32D1C878FFF7DDFF050470787E
:1010F800FFF7D9FF45EA0025B078FFF7D4FF28436A
:10110800357840EA45352368CA225A622368532253
:101118005A622046FFF747FF064610BB236825F0B2
:101128007F4525F0C0055D602268D36823F0800301
:10113800D36023689B6813F0200F1CD02368FF221C
:101148005A62012363770023237712E0CD78487829
:10115800000240EA05408D7828430D7840EA45357D
:10116800D1E72368FF225A62042363770023237799
:101178000126304670BD2046FFF7FCFE0028DDD072
:101188002368FF225A62042363770023237701260A
:10119800EFE70226EDE7F8B5037F012B78D00D467F
:1011A80004460123037702234377002A46D10368C4
:1011B8009B6813F0400F01D10023CB702878FFF70C
:1011C80072FF06046878FFF76EFF46EA0026A878E3
:1011D800FFF769FF3043EE7840EA06462368CA22E3
:1011E8005A62236853225A622046FFF7DCFE0746FC
:1011F800002835D1236806F07F3626F0FE461E60AB
:101208002268936823F48023936021688B68EA68D6
:101218002869024313438B602268D36823F0800354
:10122800D36023689B6813F0200F23D02368FF2224
:101238005A62012363770023237719E003689B68C8
:1012480013F0400F01D10023CB702B78687800028F
:1012580040EA0340AB781843EE7840EA0646BDE71B
:101268002368FF225A620423637700232377012728
:101278003846F8BD2046FFF77DFE0028D6D0236803
:10128800FF225A6204236377002323770127EFE7BD
:101298000227EDE710B413465AB9027801248C40AE
:1012A8008B40DBB222EA04010B4303705DF8044B68
:1012B80070470123F1E7000008B503280AD0022887
:1012C8000FD0012814D000224FF440510C48FFF7EA
:1012D800AEFA08BD01224FF440510948FFF7A7FABA
:1012E800F7E701224FF480510548FFF7A0FAF0E72D
:1012F80001224FF400510248FFF799FAE9E700BFCD
:10130800000C024000B583B000238DF8073002219D
:101318002448FFF785FA01281CD004212148FFF74B
:101328007FFA012823D006211E48FFF779FA012801
:101338002AD0012202210DF10700FFF7ABFF01229D
:1013480011460DF10700FFF7A5FF9DF8070003B050
:101358005DF804FB012211460DF10700FFF79AFF23
:10136800002202210DF10700FFF794FFEDE70122AB
:1013780002210DF10700FFF78DFF002201210DF179
:101388000700FFF787FFE0E7012202210DF10700C0
:10139800FFF780FF012211460DF10700FFF77AFFE2
:1013A800D3E700BF000002402DE9F0418AB00024D5
:1013B8000594069407940894099401942B4B1A6B8E
:1013C80042F004021A631A6B02F004020192019AB5
:1013D80002941A6B42F080021A631A6B02F08002C0
:1013E8000292029A03941A6B42F001021A631A6B72
:1013F80002F001020392039A04941A6B42F0080265
:101408001A631B6B03F008030493049B184F2246CE
:101418004FF470413846FFF70AFA01260596154B36
:1014280006930794DFF8508005A94046FFF714F9A2
:10143800062505950694079605A94046FFF70CF979
:101448004FF470430593069607940323089305A960
:101458003846FFF701F9224621462846FFF7A6F845
:101468002846FFF7D7F80AB0BDE8F08100380240F7
:10147800000C0240000011100000024030B587B097
:101488000024019402940394049405940094164D46
:10149800164B2B606C607F23AB60FF23EB602C61E5
:1014A8006C61AC612846FFF79CFD23238DF804305E
:1014B80059238DF805308DF80630049405940122DF
:1014C80001A92846FFF767FE01228DF800208DF854
:1014D80001208DF8022019238DF80330694628462B
:1014E800FFF7ECFD07B030BD3400002000280040B5
:1014F80030B599B0302200210DEB020000F02CF934
:1015080000240794089409940A940B94039404946F
:10151800059406940194204B1A6C42F080521A6488
:101528001B6C03F080530193019B02941B4B1A68B8
:1015380042F480421A601B6803F480430293029BC2
:1015480009230C934FF4A0230D9301231193022533
:1015580012954FF48003139308231493A82315932B
:101568001695042317930CA8FFF776F90F23079312
:10157800089509944FF480530A930B94294607A8B9
:10158800FFF7A2FB03954FF40073069303A8FFF738
:1015980047FC19B030BD00BF003802400070004061
:1015A80008B5114B114A1A60FEF7AEFFFFF7A0FF0E
:1015B800FFF7FAFEFFF762FF02210D48FFF730F947
:1015C800094C23681878FFF777FE23685868FEF7F8
:1015D800C7FFFFF797FE074B18702368023053F8D0
:1015E80020302360E8E700BF2C000020881700089F
:1015F800000002405400002082B0002100910B4BF3
:101608005A6C42F480425A645A6C02F48042009246
:10161800009A01911A6C42F080521A641B6C03F014
:1016280080530193019B02B0704700BF003802400D
:101638000268044B9A4200D07047034B01221A609B
:10164800FAE700BF002800403C0E47427047FEE71B
:10165800FEE7FEE7FEE770477047704708B5FEF7FC
:101668006DFF08BD08B50120FFF7E8F808BD0000C8
:101678000F49D1F8883043F47003C1F888300D4B16
:101688001A6842F001021A60002098601A6822F075
:10169800847222F480321A60074A5A601A6822F467
:1016A80080221A60D8604FF000638B60704700BFDB
:1016B80000ED00E00038024010300024DFF834D09C
:1016C800002103E00C4B5B58435004310B480C4B92
:1016D80042189A42F6D30B4A02E0002342F8043B30
:1016E800094B9A42F9D3FFF7C3FF00F011F8FFF74F
:1016F80057FF704700000220F8170008000000207C
:101708000C0000200C0000205C000020FEE7000018
:1017180070B50D4E0D4CA41BA4100025A54209D18F
:101728000B4E0C4C00F020F8A41BA4100025A54279
:1017380005D170BD56F8253098470135EEE756F8C3
:10174800253098470135F2E7F0170008F017000830
:10175800F0170008F417000802440346934200D12A
:10176800704703F8011BF9E7F8B500BFF8BC08BCDF
:101778009E467047F8B500BFF8BC08BC9E46704747
:1017880003000000F4010000B8170008A0170008C3
:10179800B81700088817000802000000F4010000CC
:1017A800A017000888170008B8170008881700084D
:1017B80001000000F4010000B8170008A017000895
:1017C80088170008881700080000000000000000C3
:1017D80001020304060708090000000001020304CF
:0817E80010EAFF7F0100000080
:0417F000AD0100083F
:0417F400890100085F
:0C17F80001000000100000000024F400BC
:04000005080016C514
:00000001FF
