:020000040800F2
:1000000000000220454400086542000885420008BF
:10001000A1420008BD420008D942000800000000CB
:10002000000000000000000000000000F542000891
:100030001543000800000000354300085543000840
:10004000954400089544000895440008954400082C
:100050009544000895440008814300089544000831
:10006000954400089544000895440008954400080C
:1000700095440008954400089544000895440008FC
:1000800095440008954400089544000895440008EC
:1000900095440008954400089544000895440008DC
:1000A00095440008954400089544000895440008CC
:1000B00095440008954400089544000895440008BC
:1000C00095440008954400089544000895440008AC
:1000D000954400089544000895440008954400089C
:1000E000954400089544000895440008954400088C
:1000F000954400089544000895440008954400087C
:10010000954400089544000895440008954400086B
:10011000954400089544000895440008954400085B
:10012000954400089544000895440008954400084B
:10013000954400089544000895440008954400083B
:10014000954400089544000895440008954400082B
:10015000954400089544000895440008954400081B
:10016000954400089544000895440008954400080B
:1001700095440008954400089544000800000000DC
:080180009544000895440008B5
:1001900010B5054C237833B9044B13B10448AFF3C1
:1001A00000800123237010BDC01E0020000000004D
:1001B000A05E000808B5034B1BB103490348AFF329
:1001C000008008BD00000000C41E0020A05E0008E2
:1001D00000F0F4BD89B12DE9304805460C46FFF723
:1001E000F7FFD5E9002310EB020B41EB030C013CB8
:1001F000E5E802BCF3D1BDE830887047024BD3E993
:1002000001031844704700BF04460020034B1A68DE
:100210000AB1586970470120704700BF04460020AA
:10022000704700BF10B4084C202390EA010F4CBF68
:1002300022460022013B4FEA410182EA4000F4D10C
:100240005DF8044B704700BFB71DC10410B5064CE4
:10025000206840B1054B1B68DB68984203D004F06E
:1002600077F90023236010BDB8450020E81C00206A
:1002700038B50A4C05462046A90050F81C3B01221F
:1002800004F014FD01281CBF01236361D4E901308F
:100290002B44401BC4E9013038BD00BF0446002098
:1002A00038B50E4CA368B3F5806F054605D21D44E2
:1002B0000733A56004EB830038BD4FF48060FFF77F
:1002C000D7FFA368002BF2D041F21C021D44A258B4
:1002D000E2610733A56004EB830038BD04460020CB
:1002E00070B51A4CD4E90232A1690029A2EB0302CD
:1002F00023DD824206461AD261681944616004F126
:100300001C0012B150F82330E36100EB8200236837
:10031000E26000254FF480520121A56004F03AFB11
:10032000E36803EB9000B042E06008D3A3681E448A
:100330000733A66004EB830070BD002070BD236905
:10034000E56033441B1A2361284670BD0446002033
:1003500010B50A4C206800B110BD094804F0B4FC87
:1003600050B1084904F0ACFA20600028F4D1064BE3
:100370001B68D868206010BD2068F6E7B8450020EB
:10038000446900084C680008E81C00200FB410B550
:1003900082B004AB53F8044B0193FFF7D9FF214619
:1003A000019A04F06DFF02B0BDE8104004B0704740
:1003B0002DE9F041D1B10E46D1F8008082B100F1B3
:1003C0000C0404EB8207002354F8042F06EBC3014E
:1003D00022B15D1CC86904F04FFD2B46BC42F3D12D
:1003E000304604F049FD4046BDE8F0818846FAE712
:1003F00030B404460D4654EA05031AD0D9B1B1FA17
:1004000081F2C2F13F03012B13D9C2F13D01C1F1C9
:10041000200005FA00F024FA01F32039034325FAFD
:1004200001F1C2F180420B433E3203F0030000EBC6
:10043000820030BC7047B0FA80F22032E1E700BFA2
:100440002DE9F04819460646104614461D46FFF7AA
:10045000CFFF00EB4000C00031183758D1E904232A
:1004600001373750D1E9026712EB040B43EB050C5F
:10047000B44275EB0703C1E904BC01DAC1E90245E6
:10048000BDE8F0882DE9F8438B68002B3CD00D4681
:100490000646D1E906890B4601F5BD54002200202D
:1004A00000219A62C3E90C89C3E90E0118339C420A
:1004B000F7D14EB305F12808336913B3726B02B359
:1004C000002702E00137BA421BD0B36B53F8275024
:1004D000002DF7D02B68B342F4D12B69002BF1D05B
:1004E00000246B6903EBC403D3E900234046FFF704
:1004F000A7FF2B690134A342F3D8726B0137BA42CC
:10050000E3D17668002ED7D1BDE8F8832DE9F04F0E
:1005100083B0934601908846074641F2C872084668
:100520000024002104F0BBFCCBF80040002F66D073
:10053000A146F86801F09EFA844238BFCBF800006B
:10054000B9684846FFF76EFE7C6B2146FFF76AFEEE
:100550008146002C4ED0BE6B06EB840AAAF1040A39
:10056000043E0CE02368BB42484611D00021FFF74F
:1005700059FE0021FFF756FE814656453AD056F8FF
:10058000044F002CEED121464846FFF74BFEF0E722
:10059000E168FFF747FEA168FFF744FE3B6981462B
:1005A000002BEAD02569D8F808302B44C8F8083069
:1005B0002946FFF737FE8146002DDED06169D8E974
:1005C000042301EBC50EAEF1080EA1F1080CFCE905
:1005D000020112184B41C8E90423D8E90601DCE9FD
:1005E0000045A042A94101DAC8E90645E645EED139
:1005F0005645C4D17F6827B1DBF8004099E7DDF8A4
:10060000049001984146FFF73DFF484603B0BDE81E
:10061000F08F00BF70B504461A4804F055FB50B384
:1006200003F040FF20EAE073A360174804F04CFB9E
:100630000646A0B101F01EFA63680546981C85B114
:100640006B1EF25C2F2A18D0E560284404F00CFCE5
:100650002A4620603146BDE8704004F015BC606851
:100660000230A36813B1094E0125EDE7E36004F001
:10067000FBFB206070BD0346D6E71D46002BE3D18F
:10068000EFE700BF586900086C690008546900086A
:100690002DE9F04FADF5BE5D87B00346FB240D900C
:1006A0000A9103F5BC5500210EA84FF4BD528B46AC
:1006B0000B9404F0F4FB05F108030C93A24600230D
:1006C0000024CDE90234D94658460C9BD3E90412E4
:1006D000D3F800B0CDE90412BBF1000F77D0D3E915
:1006E0000234CDE908344C46002C00F0B3800A9B5C
:1006F0000AEB4A0203EBC202D2E90289DDE90823D0
:1007000012EB080243EB09035C45CDE90023C0F07E
:10071000858040F23C81DDE90256ABFB05010BFB15
:1007200006112246002300F0C1FF06460F46DDE910
:100730000201801B61EB0701CDE9020100200021CD
:10074000DDE90423CDE90401A4EB0B04CDF81CB0D2
:100750004FF0000B16EB0208DDE9000147EB03093F
:10076000FFF746FE410001EB000C0EAB03EBCC0E95
:10077000DEE904230EAD55F83C60069618EB020541
:1007800049EB03062F46B046DDE90665DEE90223A4
:100790002E4435460EAECEE9047846F83C5052EA77
:1007A000030505D0DDE90056954276EB030307DA31
:1007B0000EAB014403EBC101DDE90023C1E90223D3
:1007C0000CB90AF1FF3ABBF1000F8DD1A1460B9B8A
:1007D0000C9A013B0B93183A01330C927FF475AFDE
:1007E0000546B9F1000F01D00AF1FF3ABAF1000F46
:1007F000C0F2A4800A9ADDE902890AEB4A0302EBFF
:10080000C303183AD3E90401183B18EB000849EB7D
:1008100001099A42F6D1CDE902898FE0DDE904565B
:10082000A4FB050104FB06115A46002300F03EFF1D
:100830002D1A66EB010602460B4600200021ABEBA9
:10084000040B0794CDE904560024DDE90267CDE9E5
:1008500002017FE7BAF1000F15DB0AEB4A030A99A0
:1008600051F8334001EBC302002C40F08B8013465B
:1008700004E01C681A46002C40F084801AF1FF3A0C
:10088000A3F11803F5D20B9B5E00F118C9000EAB63
:10089000054658185B585C461F19DDE90489D0E904
:1008A0000423D0E902AB18EB020849EB03094B46DD
:1008B00042460EACC0E904235AEA0B03675057D0F6
:1008C000DDE90834534574EB0B0351DB0B9B06EB5E
:1008D000030C4FEACC0C0EAA02EB0C0E0D9ADDE9CC
:1008E000028994449A46AB4622E05EE902015CE943
:1008F0000223161843EB010732463B465EE90467C4
:100900005EF8184C5CF8185C56EA07012C444EE976
:1009100002234EF8184C5CE9042303D0B24273EB77
:10092000070101DA4EE90423AEF1180EACF1180C00
:10093000BAF1010AD9D5CDE902895D460EAB05EBC6
:10094000450403EBC404D4E90423DDE9028918EB70
:10095000020849EB03090EA90D984FF4BD52C4E9F2
:10096000048904F091FA0DF5BE5D07B0BDE8F08F83
:100970000B9B0EAAF31802EBC303DDE90812C3E9CF
:100980000212A3E7D2E90401CDE90201B4E6DDE9F0
:100990000267CCE64FF0FF30704700BF124B994220
:1009A0001FD070B503F1435382B003F570130E0EE0
:1009B0000D0C0C0A03F2CF338DF803108DF8006094
:1009C0008DF801508DF80240019342B111466B46FB
:1009D00001AA0648FFF7DAFC002002B070BD0268E9
:1009E000F4E70120704700BF72333741786900088F
:1009F0002DE9F04F126883B01C46DDF830C0DB688B
:100A00000E9D0190002A48D009B95A1CE260D4E931
:100A10000689D4E90467D4E90801002B52D1DCF837
:100A20000830A360DCE9042312EB060A43EB070B52
:100A30005B465246C4E90423DCE90667B04579EB1E
:100A400007037DDAC4E90667DCE90623161843EBE1
:100A50000107C4E908670CF128014FF4BD5204F105
:100A6000280004F011FAEB68D3B9E368C3B1A368B6
:100A7000AB60E368EB60D4E90423C5E90423D4E95F
:100A80000623C5E90623D4E90823C5E908230D9BFD
:100A90002360002003B0BDE8F08F002B47D1EB6846
:100AA0002A68002AF3D1A968A268914202D1E268BB
:100AB0009A4223D001992A48FFF768FC4FF0FF3390
:100AC0002B60E4E7DCE9042312EB060A43EB070B97
:100AD0005B465246C4E90423DCE90667B04579EB7E
:100AE000070333DB321847EB0103C4E908230CF199
:100AF000280104F12800FFF7CBFDB4E7D5E9040194
:100B0000D4E90423994208BF9042D3D1D5E9060124
:100B1000D4E90623994208BF9042CBD1D5E9080118
:100B2000D4E90823994208BF9042C3D1AFE70199A5
:100B30000C48FFF72BFC4FF0FF3003B0BDE8F08FFF
:100B4000321847EB0103C4E9082384E7C4E90667C8
:100B5000DCE90623161843EB0107C4E90867C6E77A
:100B6000DC690008B0690008074B10B44FF0FF3291
:100B700000249A6121462246C3E9014418685DF8C1
:100B8000044B03F017BF00BF0446002038B50F4CDC
:100B90000F4900234FF0FF3222616360C4E9023342
:100BA0006361054603F08CFE206030B10125002111
:100BB000A56104F0AFFD284638BD2846054903F07D
:100BC0007FFE20600028F1D138BD00BF0446002020
:100BD0004C6A0008506A0008F8B50D460146AC683A
:100BE000EE682F68002C07EB06000CDD0B782F2B2E
:100BF00006BF4B784A1C0A462BB12F2B1AD012F88D
:100C0000013F002BF9D12EB10B782F2B02D02F23CF
:100C1000BB55013004F0BBFE2868FFF7B7FF38B9B9
:100C20002A68FFF7B7FE80B91046FFF7AFFFA8B1FB
:100C30000020F8BD5378013C02F1010C1146002B55
:100C4000E1D0002CDFD06246D7E7094B09491B6889
:100C5000D86803F03DFE4FF0FF30F8BD044B2A6822
:100C60001B680549D86803F033FE4FF0FF30F8BD2C
:100C7000E81C0020546A0008686A000810B50B4C94
:100C8000206830B1A36843B903F062FC00232360FD
:100C9000E3600023A361606910BDA269002AF3DA52
:100CA0001846FFF7E5FA2068EEE700BF044600208B
:100CB00010B504460120FFF7F3FA046010BD00BF31
:100CC00038B5054602200C46FFF7EAFAC0E90054A1
:100CD00038BD00BF38B5054602200C46FFF7E0FAE4
:100CE000C0E9005438BD00BFF0B5002389B0CDE99C
:100CF0000033CDE90233CDE90433CDE906330D46A7
:100D00009C460E460C464FF0010EA76A5A0908A9E8
:100D100001EB8202183403F01F01013347B152F88E
:100D2000207C0EFA01F139430CF1010C42F8201C31
:100D3000FC2BEAD10CEB8C0C0CF11101FFF7CAFF74
:100D40002868FFF7B5FFA868FFF7B2FFE868FFF76C
:100D5000AFFFD5E90401FFF7B3FFD5E90601FFF7BF
:100D6000AFFFD5E90801FFF7ABFFADF1040407AF12
:100D700054F8040FFFF79CFFA742F9D105F5BD55C4
:100D8000B36A18464BB1FFF793FFD6E90C01FFF7A2
:100D900097FFD6E90E01FFF793FF1836AE42EFD169
:100DA00009B0F0BD08B50120FFF79AFA20B100683C
:100DB000BDE80840FFF734BA08BD00BF38B50220CF
:100DC000FFF78EFA78B103460068FFF729FA044668
:100DD0005868FFF725FA00250346002242EA04007E
:100DE00043EA050138BD0020002138BD2DE9F04F50
:100DF00087B0CDE9040288460393002401F134034F
:100E0000103153F8042D02B101348B42F9D104346E
:100E1000E400204604F028F80546002842D0039B51
:100E20000024C0E90043FFF7BDFFE860FFF7BAFF09
:100E30002861FFF7B7FF2746686108F10C0656F8EE
:100E4000043F33B3FFF7AEFF630403F1D07303F540
:100E5000803398423BD1FFF7A5FF4FEA500A4FEA93
:100E6000CA0B584604F000F8814698B305EBC7005A
:100E70000AF1FF3BC0E906A9BAF1000F08D0FFF75D
:100E80009DFF0BF1FF3BBBF1FF3FE9E80201F6D10B
:100E900001370134092CD2D1059B28461D6007B0CB
:100EA000BDE8F08F4FF0FF3674B10C4B0094DDE9D4
:100EB00003210B48FFF76AFA32462946404607B03D
:100EC000BDE8F04FFFF774BA064B3446EEE726460E
:100ED000044BEBE726465C46E6E700BF846A000861
:100EE000A86A0008946A00082DE9F04F89B080468E
:100EF000FFF758FFC8F80000FFF754FFC8F80800D4
:100F0000FFF750FFC8F80C00FFF758FFC8E90401CD
:100F1000FFF754FFC8E90601FFF750FF4FF4BD5239
:100F2000C8E9080108F12800002103F0B8FFADF17D
:100F3000040407AE0025FFF735FF44F8040F00F066
:100F40001DFCA6420544F6D16F1E002D37D00024AB
:100F5000DFF87890DFF878A026462546A4B90DEB97
:100F60008605043D00E01E46072E02D94846FFF7DD
:100F70000DFA55F8044F731C002CF4D075011E4671
:100F8000E30703D464080135E307FBD5FB2D19D82B
:100F9000FFF708FF05EB450B08EBCB0B013FCBF848
:100FA0002800FFF70BFFCBE90C01FFF707FF7A1CC6
:100FB0004FEA540405F10105CBE90E01CED109B089
:100FC000BDE8F08F5046FFF7E1F9E1E7086B000854
:100FD000CC6A00082DE9F04FADF5BE5D85B09B46AB
:100FE0000DF5BF531833D3F8008001920DF5BF53B0
:100FF0001C330C4606461D68FFF7D4FE04F10C0AAC
:10100000014632465046FFF7C9FC002800F0D58063
:10101000FFF7C8FEA368984205D000200DF5BE5D1D
:1010200005B0BDE8F08FDFF8B091FFF7E7F8286072
:10103000FFF7B8FEB0F1234F35D1FFF7B3FE02A89A
:10104000FFF752FFFFF7E2F80746002840F09180D3
:10105000D8F80030A3B90DF5C052029B1268934234
:10106000E3D1049FDBF8003001989F4241F2C8723F
:1010700002A9DAD103F008FF2B68C8F80030D4E7E2
:1010800041F2D07003F0F0FE41F2C8720346C9F895
:10109000000002A90830009303F0F6FE009B1F60D9
:1010A000D9F80090C1E7656B002D00F08280A36B3A
:1010B000B0F1807F1F684FF000056CD1DFF81C8114
:1010C000CDF804A033464646984614E032462B46F7
:1010D00021464046FFF78AFE064600285AD0FFF711
:1010E00061FE636B01359D4262D0A36BB0F1807FDE
:1010F00053F825704ED1FFF755FE0028EFD0032896
:1011000048D1002FE2D03B689C42DFD1FFF74AFE76
:101110007B6898423ED1FFF745FEBB68984239D1C3
:10112000FFF740FEFB68984234D1DFF8B490DDF859
:1011300004B010375BF804AFBAF1000F0ED0FFF720
:1011400031FE0090FFF72EFE009A4A4522D1396801
:10115000B0EB410F1ED17868D0470837184B09F51E
:1011600000399945E6D1FFF751F80028B7D0074676
:101170004646144B144A1548314612EA270238BF36
:101180001A46FFF703F94FF0FF300DF5BE5D05B0CD
:10119000BDE8F08F46462B4631460D4A0D48FFF715
:1011A000F5F84FF0FF300DF5BE5D05B0BDE8F08FEE
:1011B000464600283FF431AFEDE74FF0FF302DE712
:1011C0000000B301546B0008486B0008906B0008E6
:1011D0005C6B0008686B0008BC450020C04500201F
:1011E0000000A10138B5094CA368054613B11846A3
:1011F000FFF73EF8A9000022206803F0DBFB20681F
:1012000003F072FC8010606038BD00BF044600200F
:101210002DE9F04F834683B00D461C46002A00F0AE
:101220008B80002C40F09380DFF83C9129464FF0F2
:101230002340FFF759FDD9F8044074B104F10801C7
:101240004FF02340FFF750FDD9F80400046803F085
:1012500013FEC9F80440002CF0D1DBF83430002B29
:101260005DD04FF0000812E0DBF8383053F828501A
:1012700015B12B685B4557D000214FF08070FFF708
:1012800029FDDBF8343008F10108434547D0D9F88F
:101290000850002DE8D06B684345E5D101230321B8
:1012A0004FF0807008350193FFF714FD68682A4EEF
:1012B000FFF7FEFCA868FFF7FBFCE868FFF7F8FC07
:1012C00010350BF10C0757F8043F93B12A680092D0
:1012D00051003046FFF7FEFC009AD5F804A0541EDA
:1012E00032B1013CFAE80201FFF7EAFC631CF8D1D5
:1012F00008351A4B06F500369E42E4D1019B002BBF
:10130000BFD00922D9F808105846FFF751F8DBF88A
:101310003430C9F8080008F101084345B7D100206E
:1013200003B0BDE8F04FC3E403214FF08070FFF736
:10133000D1FC00230193B9E709480A49FFF7CAFC29
:10134000DBF80800FFF7B4FC002C3FF46DAF20463B
:10135000FFF748FF68E700BF0000A1010000B301EC
:101360006164636772333741B8450020022953DD59
:101370002DE9F04F033985B0490800F1180303EB5C
:1013800001130746039300F10808A0F1080E00F1CD
:1013900010064FF00009DEE908ABDEE90445DEE99E
:1013A00006235445CDE9002375EB0B034A4631DA99
:1013B000A6F1180CACEB080C7346444605E073E844
:1013C0000401504571EB0B010CDAD3E90201C3E9CA
:1013D0000601D4E90001023A002AC3E908011546D2
:1013E0006444ECDA2846DDE90034023007EBC00043
:1013F000C0E90034039B08F110089845C0E902AB2E
:1014000009F102090EF1100E06F11006C3D105B064
:10141000BDE8F08F4846E6E7704700BF70B50D4B5A
:10142000066883FB0623F417C4EB630404EBC404CF
:10143000341B0DD1002E456809DD083528460934D6
:101440000821FFF793FFA64205F14805F6DC70BDC1
:1014500003F021F8398EE338F8B5036BBBB1466B66
:10146000AEB10546002400F10C07AB6B53F8240025
:101470003A461030002352F8041F11B1082B07D050
:1014800008300133092BF6D10134A642EDD1F8BD65
:10149000FFF7C4FF6E6B0134A642E6D1F7E700BF49
:1014A0002DE9F0430546ADF5BF5D3B4C81B00E46DE
:1014B000002190461F46CDE90411C4E90111FFF750
:1014C000CBFF3146E868FFF787FB013004D10DF50B
:1014D000BF5D01B0BDE8F083FFF764FCF8B12F4BAE
:1014E000316898423BD02E48FEF750FFA16839B1D1
:1014F00009222846FEF75CFF0146A0600028F7D1CC
:10150000FFF7BCFB0028E2D0B4BF2648264831686C
:10151000FEF73CFF0DF5BF5D01B0BDE8F0830DF1B6
:101520001809FFF721FB049969B30DF5C053306822
:101530001B68CDE901730DF5C053043341461B68A8
:10154000009305F110024B46FFF752FA0130CDD05F
:101550004946DDE904322846FFF75AFEC6E705ABE7
:10156000019304AB00930DF5C053043302971B683D
:101570000DF1180908464A4608332946FFF72AFDA7
:101580000130CED1B2E741F2C872484603F087FC81
:10159000059B0493C9E700BFB845002061646367F9
:1015A000E86B0008AC6B0008CC6B00082DE9F0413B
:1015B000ADF53E5D8AB00DF5BF560AAB03AA88466D
:1015C0003146A3F110050446FEF7A0FF074602A826
:1015D000FFF720F8284641F2C872002103F05FFCB3
:1015E00054B12046CDE900563B46424602A9FFF7DA
:1015F00057FF6468002CF4D1029803F03DFC0DF510
:101600003E5D0AB0BDE8F0810179CB0700D5704797
:1016100010B50446C1F340010068FFF7C7FF237906
:1016200043F00303237110BD10B50A4C2046FFF7A9
:10163000EBFFA3680BB1E268DA60E26822B1936065
:10164000BDE81040FEF702BE034ABDE810405360FB
:10165000FEF7FCBD24560020E01C0020016809B103
:10166000436B03B9704770B5002204460C30FFF796
:1016700095F920B10A4D2B6813B163602C6070BDE1
:10168000084E094A31680C20FFF788F908B92B6821
:10169000F3E77368AB6003B1DD602B687560ECE75E
:1016A00024560020E01C00200C6C00087BB972B9A5
:1016B0000029BEBF00204FF0004106E008BF00280F
:1016C0001CBF6FF000414FF0FF3000F0D1B9ADF119
:1016D000080C6DE904CE002909DB002B1ADB00F0B1
:1016E00061F8DDF804E0DDE9022304B07047404210
:1016F00061EB4101002B1BDB00F054F8DDF804E046
:10170000DDE9022304B0404261EB4101524263EB48
:1017100043037047524263EB430300F043F8DDF8A4
:1017200004E0DDE9022304B0404261EB410170476F
:10173000524263EB430300F035F8DDF804E0DDE9E5
:10174000022304B0524263EB4303704753B94AB9D2
:10175000002908BF00281CBF4FF0FF314FF0FF30B9
:1017600000F086B9ADF1080C6DE904CE00F01AF86E
:10177000DDF804E0DDE9022304B07047430803F01C
:101780005533C01A830803F0333300F03330184464
:1017900000EB101000F00F3000EB002000EB0040D9
:1017A000000E70472DE9F047089E04468846002B3E
:1017B0004BD18A42154667D9B2FA82F24AB1C2F1D8
:1017C000200701FA02F320FA07F7954047EA0308D9
:1017D00094404FEA154E230CB8FBFEF71FFA85FC28
:1017E0000EFB178843EA084307FB0CF1994209D91D
:1017F000EB1807F1FF3080F01B81994240F218810D
:10180000023F2B445B1AA4B2B3FBFEF00EFB103375
:1018100044EA034400FB0CFCA44509D92C1900F14F
:10182000FF3380F00781A44540F2048102382C4444
:1018300040EA0740A4EB0C0400271EB1D44000236B
:10184000C6E900433946BDE8F0878B4209D9002E2E
:1018500000F0EB800027C6E9000138463946BDE8B4
:10186000F087B3FA83F7002F47D18B4202D382422D
:1018700000F2FA80841A61EB030301209846002EDF
:10188000E0D0C6E90048DDE702B9FFDEB2FA82F235
:10189000002A40F08F80491B4FEA154E1FFA85F849
:1018A0000127B1FBFEFC230C0EFB1C1143EA014394
:1018B00008FB0CF1994207D9EB180CF1FF3002D26A
:1018C000994200F2CD808446591AA3B2B1FBFEF0D2
:1018D0000EFB101443EA044408FB00F8A04507D9A6
:1018E0002C1900F1FF3302D2A04500F2B680184651
:1018F000A4EB080440EA0C409FE7C7F1200CBB4072
:1019000022FA0CFE4EEA030E01FA07F420FA0CF557
:1019100021FA0CF34FEA1E482543B3FBF8F92C0CCF
:1019200008FB19331FFA8EFA44EA034309FB0AF451
:101930009C4202FA07F200FA07F10BD91EEB0303EF
:1019400009F1FF3080F087809C4240F28480A9F149
:10195000020973441B1BADB2B3FBF8F008FB103354
:1019600045EA034400FB0AFAA24508D91EEB040429
:1019700000F1FF336BD2A24569D90238744440EAC2
:101980000940A0FB0289A4EB0A044C45C2464B4621
:1019900054D351D0002E69D0B1EB0A0564EB030497
:1019A00004FA0CFCFD40FC404CEA0505C6E9005475
:1019B000002747E7C2F1200320FA03F7954001FA18
:1019C00002F021FA03F34FEA154E3843010CB3FB42
:1019D000FEF71FFA85F80EFB173341EA034107FBB8
:1019E00008F38B4204FA02F407D9691807F1FF3CA7
:1019F0002FD28B422DD9023F2944CB1A81B2B3FB9F
:101A0000FEF00EFB103341EA034100FB08F38B426A
:101A100007D9691800F1FF3C17D28B4215D902385B
:101A20002944C91A40EA07473BE73746304609E7E9
:101A30000746E7E61846FBE64145ABD2B8EB020A9B
:101A400069EB0E0201381346A4E76046E9E7184641
:101A500095E76746D1E781467CE702382C4447E7A3
:101A6000ACF1020C2B442FE7384608E73746E9E68D
:101A7000704700BF034613F8012B002AFBD1181A48
:101A80000138704700000000000000000000000066
:101A900001F0FF01102A2BDB10F0070F08D010F81F
:101AA000013B013A8B422DD010F0070F42B3F6D123
:101AB000F0B441EA012141EA014122F007047FF03C
:101AC00000070023F0E80256083C85EA010586EA93
:101AD000010685FA47F5A3FA87F586FA47F6A5FACF
:101AE00087F68EB9EED1F0BC01F0FF0102F00702DB
:101AF00032B110F8013B013A83EA010313B1F8D186
:101B00000020704701387047002D06BF3546033866
:101B1000073815F0010F07D1013015F4807F02BF9F
:101B2000013015F4C03F0130F0BC0138704700BFF0
:101B30002DE930480546224CD4E90823501C43F1D6
:101B40000001C4E908011F4B18784FF47A73B3FB06
:101B5000F0F31D4A1068B0FBF3F000F07DF9D4E912
:101B60000A2312F1010B43F1000CC4E90ABC18BBB3
:101B7000D4E90C2312F1010B43F1000CC4E90CBCB5
:101B80000F2D01D9012018E0D4E90E23501C43F198
:101B90000001C4E90E01002229464FF0FF3000F099
:101BA000EFF8084B5D60D4E91023501C43F10001AD
:101BB000C4E91001002000E00120BDE8308800BF2A
:101BC000E01E002000000020681C002010B51A4C08
:101BD000D4E91223501C43F10001C4E91201174B50
:101BE0001A6842F400721A601A6842F480621A603D
:101BF0001A6842F480721A60032000F09FF8D4E95A
:101C00001423501C43F10001C4E914010020FFF724
:101C10008FFFD4E91623501C43F10001C4E91601DB
:101C200002F0C6FAD4E91823501C43F10001C4E9BC
:101C30001801002010BD00BFE01E0020003C024043
:101C40004DF804BD0849D1E91A2312F1010B43F103
:101C5000000CC1E91ABC054A1168054B1B780B44FE
:101C600013605DF804BB7047E01E0020D4450020DF
:101C7000000000204DF804BD0649D1E91C2312F1F3
:101C8000010B43F1000CC1E91CBC034B18685DF863
:101C900004BB7047E01E0020D44500202DE93048E9
:101CA00004461E49D1E9282312F1010B43F1000C2F
:101CB000C1E928BCFFF7DEFF0546B4F1FF3F0BD0BA
:101CC000174B1B781C441549D1E92A2312F1010B4B
:101CD00043F1000CC1E92ABC1049D1E92C2312F1CF
:101CE000010B43F1000CC1E92CBCFFF7C3FF401B03
:101CF000A04209D20949D1E9302312F1010B43F185
:101D0000000CC1E930BCF0E70449D1E92E23541C92
:101D100043F10005C1E92E45BDE83088E01E0020F2
:101D20000000002008B50248FFF798FC08BD00BF7E
:101D30000800002008B5FFF777FC08BD4DF804BD8A
:101D40000D49D1E9002312F1010B43F1000CC1E967
:101D500000BC0A4AD36823F4E0631B041B0C000296
:101D600000F4E060184340F0BF6040F40030D06001
:101D70005DF804BB704700BF1820002000ED00E0B4
:101D80002DE9F008244BDB68C3F30223C3F10704F9
:101D9000042C28BF042426461C1D062C2AD9033BEC
:101DA0001E4FD7E9024514F1010B45F1000CC7E9BC
:101DB00002BC4FF0FF3505FA06F421EA0401994010
:101DC00005FA03F322EA03031943002814DB09018F
:101DD000C9B200F1604000F5614080F800130F497E
:101DE000D1E90623541C43F10005C1E90645BDE8CD
:101DF000F00870470023DCE700F00F000901C9B2CA
:101E0000074B19540549D1E90423541C43F100053B
:101E1000C1E90445EBE700BF00ED00E01820002019
:101E200014ED00E04DF804BD0949D1E9082312F191
:101E3000010B43F1000CC1E908BC00F01F0240098E
:101E400001239340034A42F820305DF804BB7047F9
:101E50001820002000E100E04DF804BD1249D1E94E
:101E6000162312F1010B43F1000CC1E916BC013835
:101E7000B0F1807F15D20D4B58600D4AF02182F8E9
:101E800023100020986007221A600749D1E918231F
:101E900012F1010B43F1000CC1E918BC5DF804BB61
:101EA00070470120FAE700BF1820002010E000E092
:101EB00000ED00E008B50248FFF7D0FB08BD00BF09
:101EC0000003002008B5FFF7AFFB08BD08B50248C6
:101ED000FFF7C4FB08BD00BF5005002008B5FFF7A1
:101EE000A3FB08BD08B50248FFF7B8FB08BD00BF5B
:101EF0003007002008B5FFF797FB08BD08B502487A
:101F0000FFF7ACFB08BD00BFDC07002008B5FFF7FA
:101F10008BFB08BD08B50248FFF7A0FB08BD00BF5A
:101F2000F409002008B5FFF77FFB08BD2DE9F04755
:101F300082B0002364E0002404FA02F242EA0C02B8
:101F40000237B24C44F82720B14A1468F24302EA3F
:101F500004074D6815F4803F0BD046EA0407DFF80C
:101F6000B4C2DCE91C4514F1010845F10009CCE9D3
:101F70001C89A74C2760646802EA04074D6815F4C1
:101F8000003F0BD046EA0407DFF888C2DCE91E45B3
:101F900014F1010845F10009CCE91E899C4C6760E9
:101FA000A46802EA04074D6815F4801F0BD046EAC6
:101FB0000407DFF860C2DCE9204514F1010845F1AF
:101FC0000009CCE92089924CA760E46822404D6862
:101FD00015F4001F09D046EA04028E4ED6E92245C8
:101FE000671C45F10008C6E92278894CE260894AFD
:101FF000D2E92445661C45F10007C2E92467013394
:102000000F2B00F23381834AD2E92645661C45F145
:102010000007C2E9266701229A400E681640B242C4
:10202000EDD17C4FD7E9004514F1010845F10009D5
:10203000C7E900894F68022F0BD0DFF8D8C1DCE96F
:10204000024514F1010845F10009CCE90289122F7B
:1020500019D1DD08083550F825C003F00704A700A2
:102060000F24BC402CEA040C0C69BC4044EA0C046C
:1020700040F82540674FD7E9044514F1010845F1C0
:102080000009C7E9048905685F004FF0030C0CFAEA
:1020900007FC6FEA0C0C0CEA05054C6804F003041D
:1020A000BC402C430460D1F804E00EF1FF34012C55
:1020B00017D9DFF86081D8E9064514F1010945F127
:1020C000000AC8E9069ABEF1110F0AD0D8E90845FE
:1020D00014F1010945F1000AC8E9089ABEF1120F8E
:1020E00018D185680CEA0505CC68BC402C43846097
:1020F000456825EA02054C68C4F300129A402A4359
:102100004260444AD2E90A4514F1010845F1000948
:10211000C2E90A89C2680CEA020C8A6802FA07F767
:1021200047EA0C07C7604A6812F0805F3FF467AF68
:1021300000220192384A546C44F480445464526C36
:1021400002F480420192019A9F08BC1C2F4A52F867
:10215000244003F0030292004FF00F0C0CFA02FC33
:1021600024EA0C0C2D4CA0423FF4E5AEDFF8A4E0CD
:10217000DEE90C4514F1010845F10009CEE90C89AE
:10218000274CA04264D0DEE90E4514F1010845F168
:102190000009CEE90E89234CA0425BD0DEE9104550
:1021A00014F1010845F10009CEE910891E4CA04246
:1021B00052D0DEE9124514F1010845F10009CEE9DB
:1021C00012891A4CA04249D0DEE9144514F10108E5
:1021D00045F10009CEE91489154CA04240D0DEE952
:1021E000164514F1010845F10009CEE91689114C94
:1021F000A04237D0DEE9184514F1010845F1000985
:10220000CEE918890C4CA0422ED017E000380140CE
:10221000003C0140F0310020003802400000024044
:102220000004024000080240000C0240001002407E
:102230000014024000180240001C0240DEE91A456A
:1022400014F1010845F10009CEE91A89082473E662
:10225000012471E602246FE603246DE604246BE694
:10226000052469E6062467E6072465E60549D1E901
:102270002823541C43F10005C1E9284502B0BDE8FC
:10228000F08700BFF03100202DE910080C4CD4E994
:10229000002312F1010B43F1000CC4E900BC0369F7
:1022A00019420BD1D4E9022312F1010B43F1000CC6
:1022B000C4E902BC0020BDE8100870470120FAE71D
:1022C000F83200204DF804BD6AB9090481610B4958
:1022D000D1E9022312F1010B43F1000CC1E902BC68
:1022E0005DF804BB704781610449D1E9002312F114
:1022F000010B43F1000CC1E900BCF1E708330020F9
:102300004DF804BD0549D1E9002312F1010B43F159
:10231000000CC1E900BC5DF804BB704730330020FD
:1023200070B51049D1E90023541C43F10005C1E9FF
:1023300000450D4B5B69034200D170BD0C46D1E9ED
:102340000223551C43F10006C1E90256064B5861B1
:10235000FFF7D6FFD4E90423501C43F10001C4E980
:102360000401EAE738330020003C014008B5024888
:10237000FFF774F908BD00BFF00B002008B5FFF7A8
:1023800053F908BD08B50248FFF768F908BD00BF5A
:102390000C0D002008B5FFF747F908BD08B5024845
:1023A000FFF75CF908BD00BF240F002008B5FFF758
:1023B0003BF908BD2DE9F04383B0A249D1E90223DE
:1023C000541C43F10005C1E90245002800F07B845C
:1023D0000446D1E90423551C43F10006C1E9045623
:1023E000036813F0010F00F08980D1E90623551C22
:1023F00043F10006C1E90656934B9B6803F00C03BA
:10240000042B6AD0D1E90823551C43F10006C1E929
:1024100008568D4B9B6803F00C03082B51D0636862
:10242000B3F5803F00F0C080B3F5A02F00F0C2806C
:10243000854B1A6822F480321A601A6822F48022CE
:102440001A608049D1E91023551C43F10006C1E907
:1024500010566368002B00F0BF807A4DD5E9122337
:10246000501C43F10001C5E91201FFF703FC0646C9
:10247000D5E91623501C43F10001C5E91601724B42
:102480001B6813F4003F39D16E4DD5E91C23501C55
:1024900043F10001C5E91C01FFF7ECFBD5E9182366
:1024A000571C43F10008C5E91878801B642800F226
:1024B0001084D5E91A23571C43F10008C5E91A789E
:1024C000DDE7D1E90A23551C43F10006C1E90A56AC
:1024D0005D4B5B6813F4800FA1D05B4B1B6813F45A
:1024E000003F0BD05749D1E90C23551C43F100069E
:1024F000C1E90C566368002B00F0E983236813F0F0
:10250000020F00F0D4804F49D1E92623551C43F136
:102510000006C1E926564C4B9B6813F00C0F00F0E7
:10252000A480D1E92823551C43F10006C1E92856AF
:10253000454B9B6803F00C03082B00F08980E3688F
:10254000002B00F010813F49D1E93023551C43F1A5
:102550000006C1E930563D4B01221A60FFF78AFBA5
:102560000646394B1B6813F0020F40F0EB80354DE7
:10257000D5E93823501C43F10001C5E93801FFF7C4
:1025800079FBD5E93423571C43F10008C5E93478B9
:10259000801B022800F2A183D5E93623571C43F1A2
:1025A0000008C5E93678DCE7274A136843F480332E
:1025B00013604EE7244B1A6842F480221A601A68AE
:1025C00042F480321A601F49D1E90E23551C43F1B1
:1025D0000006C1E90E563CE71A4DD5E91423501CFC
:1025E00043F10001C5E91401FFF744FB0646D5E9B4
:1025F0001E23501C43F10001C5E91E01124B1B684C
:1026000013F4003F3FF47AAF0E4DD5E92423501C5C
:1026100043F10001C5E92401FFF72CFBD5E9202394
:10262000571C43F10008C5E92078801B642800F29C
:102630005283D5E92223571C43F10008C5E92278CB
:10264000DCE700BFF03400200038024000004742C1
:10265000D1E92A23551C43F10006C1E92A56804BD3
:102660005B6813F4800F7FF46AAF7D4B1B6813F037
:10267000020F0CD07B49D1E92C23551C43F10006F5
:10268000C1E92C56E368012B01D001201CE3744AF8
:10269000136823F0F803216943EAC1031360714909
:1026A000D1E92E23551C43F10006C1E92E562368BB
:1026B00013F0080F00F0DC806369002B00F08E80BF
:1026C000684D05F58871D1E90023561C43F10007D8
:1026D000C1E90067644B01221A60FFF7CBFA064696
:1026E00005F59075D5E90023501C43F10001C5E9BB
:1026F00000015B4B5B6F13F0020F40F0B980594D46
:1027000005F59C71D1E90023571C43F10008C1E98C
:102710000078FFF7AFFA05F59475D5E90023571C4B
:1027200043F10008C5E90078801B022800F2D98235
:1027300005F10801D1E90023571C43F10008C1E964
:102740000078D6E7464A136823F0F803216943EA84
:10275000C10313604349D1E93A23551C43F10006F4
:10276000C1E93A56A3E73F4DD5E93223501C43F166
:102770000001C5E932013D4B00221A60FFF77AFAE9
:102780000646D5E93C23501C43F10001C5E93C0154
:10279000334B1B6813F0020F89D0324D05F584715D
:1027A000D1E90023571C43F10008C1E90078FFF785
:1027B00061FAD5E93E23571C43F10008C5E93E788C
:1027C000801B022800F28B8205F58071D1E900237D
:1027D000571C43F10008C1E90078D9E7214D05F500
:1027E0008C71D1E90023561C43F10007C1E9006751
:1027F0001D4B00221A60FFF73DFA064605F5A0754D
:10280000D5E90023501C43F10001C5E90001144B38
:102810005B6F13F0020F2BD0124D05F5AC71D1E9AF
:102820000023571C43F10008C1E90078FFF722FAA2
:1028300005F5A475D5E90023571C43F10008C5E947
:102840000078801B022800F24E8205F10801D1E9D0
:102850000023571C43F10008C1E90078D7E700BF07
:1028600000380240F0340020800E4742000047420A
:10287000236813F0040F00F02F81904B1B6C13F0B2
:10288000805F4AD1002301938C4B1A6C42F0805236
:102890001A641B6C03F080530193019B8849D1E9B2
:1028A0000023551C43F10006C1E900560126854B63
:1028B0001B6813F4807F32D0A368012B75D0052BE1
:1028C00079D07E4B1A6F22F001021A671A6F22F03C
:1028D00004021A677C49D1E90023571C43F1000820
:1028E000C1E90078A368002B00F0A480774D05F5BE
:1028F000D071D1E90023571C43F10008C1E90078E9
:10290000FFF7B8F9074605F5D875D5E90023501C3F
:1029100043F10001C5E9000169E00026C7E76B4DFE
:1029200005F5B471D1E90023571C43F10008C1E952
:102930000078644A136843F480731360FFF79AF9D0
:10294000074605F5B875D5E90023501C43F1000191
:10295000C5E900015B4B1B6813F4807FACD15B4D74
:1029600005F5C471D1E9002312F1010843F1000912
:10297000C1E90089FFF77EF905F5BC75D5E90023AB
:1029800012F1010843F10009C5E90089C01B0228C2
:1029900000F2AB8105F10801D1E9002312F1010831
:1029A00043F10009C1E90089D4E7444A136F43F0B9
:1029B0000103136796E7414B1A6F42F004021A674E
:1029C0001A6F42F001021A674149D1E90023571CEE
:1029D00043F10008C1E9007884E705F10801D1E975
:1029E000002312F1010843F10009C1E90089334BCA
:1029F0001B6F13F0020F6DD1344D05F5E471D1E971
:102A0000002312F1010843F10009C1E90089FFF731
:102A100031F905F5DC75D5E9002312F1010843F120
:102A20000009C5E90089C01B41F288339842D4D916
:102A3000032049E1254D05F5D471D1E90023571C48
:102A400043F10008C1E90078FFF714F9074605F5DE
:102A5000E875D5E90023501C43F10001C5E90001E8
:102A600009E005F10801D1E9002312F1010843F161
:102A70000009C1E90089114B1B6F13F0020F29D027
:102A8000124D05F5F471D1E9002312F1010843F16B
:102A90000009C1E90089FFF7EDF805F5EC75D5E906
:102AA000002312F1010843F10009C5E90089C01BA8
:102AB00041F288339842D4D9032005E1003802401E
:102AC000503600200070004088360020F03400208E
:102AD00080360020002E55D1A369002B60D0884A93
:102AE000D2E90001451C41F10006C2E90056854AC1
:102AF000926802F00C02082A00F0F980022B59D0EB
:102B0000814C04F50471D1E90023551C43F1000602
:102B1000C1E900567D4B00221A60FFF7ABF805466D
:102B200004F51674D4E90023501C43F10001C4E9F4
:102B30000001744B1B6813F0007F00F0C280724CE0
:102B400004F51C71D1E90023561C43F10007C1E9CB
:102B50000067FFF78FF804F51874D4E90023561CBA
:102B600043F10007C4E90067401B022800F2C5805A
:102B700004F10801D1E90023561C43F10007C1E923
:102B80000067D6E75F4A136C23F0805313646049F3
:102B9000D1E90023551C43F10006C1E900569BE72B
:102BA0005C49D1E90023541C43F10005C1E900450B
:102BB000002089E05849D1E90023551C43F1000663
:102BC000C1E90056514B00221A60FFF753F8064640
:102BD0004C4B1B6813F0007F21D04B4D05F50A715B
:102BE000D1E90023571C43F10008C1E90078FFF741
:102BF00041F805F50675D5E90023571C43F1000897
:102C0000C5E90078801B022873D805F10801D1E9D5
:102C10000023571C43F10008C1E90078D8E73A4E79
:102C200006F50C71D1E90023571C43F10008C1E9F6
:102C30000078E369226A1343626A43EA8213A26A54
:102C40005208013A43EA0243E26A43EA02632D4A28
:102C500053602E4B01221A60FFF70CF8054606F56B
:102C60000E76D6E90023501C43F10001C6E90001AD
:102C7000244B1B6813F0007F21D1234C04F5147101
:102C8000D1E90023561C43F10007C1E90067FEF7B4
:102C9000F1FF04F51074D4E90023561C43F100073A
:102CA000C4E90067401B022825D804F10801D1E9D6
:102CB0000023561C43F10007C1E90067D8E7002054
:102CC00002E0002000E0012003B0BDE8F083012015
:102CD000FAE70320F8E70320F6E70320F4E70320F0
:102CE000F2E70320F0E70320EEE70320ECE7012002
:102CF000EAE70320E8E70320E6E70320E4E700BF74
:102D0000E836002000380240F034002060004742DE
:102D1000E0360020F0360020F83600202DE9F04B98
:102D20004149D1E90023541C43F10005C1E90045A4
:102D30003E4B9B6803F00C03042B03D0082B0CD0F4
:102D40003B4808E03849D1E90223541C43F100050F
:102D5000C1E902453748BDE8F08B344B5A6802F0B0
:102D60003F025B6813F4800F32D0304B5B68C3F3D3
:102D700088131E4600275C010025E41A65EB070551
:102D8000A90141EA9461A001001B61EB0501CB00A0
:102D900043EA5073C400A01943EB07014B0243EA16
:102DA000D0534402204619460023FEF7CFFC1F4BA8
:102DB0005B68C3F3014301335B00B0FBF3F01A49D6
:102DC000D1E90623541C43F10005C1E90645C2E7D9
:102DD000164B5B68C3F388131E4600275C01002571
:102DE000E41A65EB0705A90141EA9461A001001B03
:102DF00061EB0501CB0043EA5073C400A01943EB1B
:102E000007018B0243EA90538402204619460023AF
:102E1000FEF79CFC0449D1E90423541C43F100054E
:102E2000C1E90445C3E700BF9837002000380240DD
:102E30000024F40000127A002DE9F048824CD4E915
:102E40000023551C43F10006C4E90056002800F099
:102E5000578104467C48D0E90223551C43F1000603
:102E6000C0E90256794B1B6803F00F038B4210D266
:102E7000D0E90423551C43F10006C0E90456CBB247
:102E8000724A1370136803F00F038B4201D00120C4
:102E900037E1236813F0020F2FD013F0040F0CD08A
:102EA0006B4A936843F4E05393606748D0E9062384
:102EB000551C43F10006C0E90656236813F0080FBD
:102EC0000CD0634A936843F4604393605E48D0E952
:102ED0000823551C43F10006C0E908565C4A936874
:102EE00023F0F003A068034393605748D0E90A2316
:102EF000551C43F10006C0E90A560E46236813F03C
:102F0000010F00F088806168012954D08B1E012BCD
:102F100069D94D48D0E9122312F1010B43F1000C9D
:102F2000C0E912BC4A4B1B6813F0020F00F0EF809F
:102F3000D0E9162312F1010B43F1000CC0E916BCD5
:102F4000434A936823F0030319439160FEF792FE0E
:102F500007463D49D1E9182312F1010B43F1000C5A
:102F6000C1E918BC3A4B9B6803F00C036268B3EBF1
:102F7000820F50D0344DD5E91E23501C43F100017F
:102F8000C5E91E01FEF776FED5E91A2312F1010B01
:102F900043F1000CC5E91ABCC01B41F288339842CA
:102FA00000F2B780D5E91C2312F1010B43F1000CAC
:102FB000C5E91CBCD6E72448D0E90C2312F1010B6B
:102FC00043F1000CC0E90CBC214B1B6813F4003F1B
:102FD00000F09980D0E90E2312F1010B43F1000CAF
:102FE000C0E90EBCACE71848D0E9102312F1010B80
:102FF00043F1000CC0E910BC154B1B6813F0007FB7
:1030000000F08380D0E9142312F1010B43F1000C8E
:10301000C0E914BC94E70D4B1B6803F00F03B342E7
:103020001FD90949D1E9202312F1010B43F1000C0A
:10303000C1E920BCF2B2054B1A701B6803F00F0304
:10304000B34207D001205CE0B8370020003C0240CA
:1030500000380240D1E92223551C43F10006C1E9A2
:103060002256236813F0040F0ED02B4A936823F4E2
:10307000E053E1680B4393602849D1E92423551CB0
:1030800043F10006C1E92456236813F0080F26D146
:103090002249D1E92623541C43F10005C1E9264504
:1030A000FFF73CFE1D4CD4E92A23551C43F10006D2
:1030B000C4E92A56184B9B68C3F30313184AD35C20
:1030C000D840184B18600020FEF732FDD4E92C23BD
:1030D000501C43F10001C4E92C01002011E00E4A0C
:1030E000936823F46043216943EAC10393600B4969
:1030F000D1E92823541C43F10005C1E92845CFE755
:103100000120BDE8F0880120FBE70120F9E701205C
:10311000F7E70320F5E700BF00380240B83700208A
:10312000005F0008681C002008B50248FEF796FA08
:1031300008BD00BF0810002008B5FEF775FA08BDED
:103140002DE9704883B005468B49D1E9002312F17F
:10315000010B43F1000CC1E900BC036813F0050F3B
:1031600007D12B6813F0020F76D1002003B0BDE821
:103170007088D1E9022312F1010B43F1000CC1E97F
:1031800002BC7E4B00221A60FEF774FD06467C4BA3
:103190001B6813F0006F1ED0774CD4E90823501C35
:1031A00043F10001C4E90801FEF764FDD4E90423FA
:1031B00012F1010B43F1000CC4E904BC801B02288E
:1031C00000F22681D4E9062312F1010B43F1000C31
:1031D000C4E906BCDBE7684CD4E90A23501C43F180
:1031E0000001C4E90A016A68AB681B0743EA82135D
:1031F000634AC2F88430614B01221A60FEF73AFD3F
:103200000646D4E90C23501C43F10001C4E90C012B
:103210005B4B1B6813F0006FA3D1574CD4E912230A
:10322000501C43F10001C4E91201FEF723FDD4E96B
:103230000E2312F1010B43F1000CC4E90EBC801BFC
:10324000022800F2E780D4E9102312F1010B43F1C8
:10325000000CC4E910BCDBE74749D1E9142312F1A3
:10326000010B43F1000CC1E914BC00230193444B52
:103270001A6C42F080521A641B6C03F08053019365
:10328000019B404A136843F480731360FEF7F2FC1D
:1032900006463C4B1B6813F4807F1ED1364CD4E9A4
:1032A0001A23501C43F10001C4E91A01FEF7E2FCA5
:1032B000D4E9162312F1010B43F1000CC4E916BC4A
:1032C000801B022800F2A880D4E9182312F1010B18
:1032D00043F1000CC4E918BCDBE7294B1B6F13F466
:1032E000407324D0244AD2E91C0110F1010B41F1B2
:1032F000000CC2E91CBCEA6802F440729A4216D083
:103300001D49D1E91E2312F1010B43F1000CC1E963
:103310001EBC1B4B1A6F22F440721B49012008602F
:10332000002008601A671B6F13F0010F2ED1EB68A5
:1033300003F44072B2F5407F5FD0114A936823F4E2
:10334000F81393600C49D1E92A2312F1010B43F1E0
:10335000000CC1E92ABC0A490B6FEA68C2F30B02F0
:1033600013430B670449D1E92C23541C43F1000596
:10337000C1E92C450020F9E6F038002068004742FA
:103380000038024000700040400E4742244CD4E90F
:103390002023501C43F10001C4E92001FEF76AFC20
:1033A0000646D4E92223501C43F10001C4E922015E
:1033B0001C4B1B6F13F0020FB9D1194CD4E9282311
:1033C000501C43F10001C4E92801FEF753FCD4E985
:1033D000242312F1010B43F1000CC4E924BC801B2F
:1033E00041F28833984219D8D4E9262312F1010B0F
:1033F00043F1000CC4E926BCDAE70A498A6822F4E2
:10340000F81223F0704323F4407313438B60A2E758
:103410000320ABE60320A9E60320A7E60320A5E6E8
:10342000F03800200038024008B50248FEF716F9CF
:1034300008BD00BFCC11002008B5FEF7F5F808BDA7
:103440002DE978480546214CD4E93823501C43F136
:103450000001C4E938012A68D36823F0A003D360CF
:10346000FEF708FC0646D4E93A23501C43F100015C
:10347000C4E93A012B68DB6813F0200F21D1134C0B
:1034800004F58071D1E9002312F1010B43F1000C26
:10349000C1E900BCFEF7EEFBD4E93C2312F1010BBD
:1034A00043F1000CC4E93CBC801BB0F57A7F0BD81B
:1034B000D4E93E2312F1010B43F1000CC4E93EBCF8
:1034C000D8E70020BDE878880320FBE7003B002018
:1034D0002DE978482749D1E90023541C43F1000520
:1034E000C1E900450368DA6812F0400F02D00020FD
:1034F000BDE8788805460C46D1E9020110F1010BC0
:1035000041F1000CC4E902BC4FF0FF32DA60FEF773
:10351000B1FB0646D4E90423501C43F10001C4E981
:1035200004012B68DB6813F0400F1ED1114CD4E965
:103530000A23501C43F10001C4E90A01FEF79AFB7B
:10354000D4E9062312F1010B43F1000CC4E906BCD7
:10355000801BB0F57A7F0AD8D4E9082312F1010B59
:1035600043F1000CC4E908BCDBE70020C0E70320FE
:10357000BEE700BF103C00202DE9F0415449D1E9DD
:103580000023541C43F10005C1E90045002800F068
:103590009C800446D1E90223551C43F10006C1E991
:1035A0000256437F002B48D0022363772368CA2248
:1035B0005A62236853225A622046FFF789FF054664
:1035C00000284FD12268936823F4E00323F04003DE
:1035D000936021688A6863682069034360690343D4
:1035E00013438B602368E2681A6122681369A1683B
:1035F00043EA014313612268D36823F08003D36058
:1036000023689B6813F0200F3DD02268136C23F4CD
:10361000802313642268136CA1690B43136423682D
:10362000FF225A62012363772949D1E91023561CEE
:1036300043F10007C1E9106722E00D46D1E90423F8
:10364000501C43F10001C5E9040100232377204603
:1036500000F0D8FDD5E90623501C43F10001C5E96F
:103660000601A1E72368FF225A6204236377184901
:10367000D1E90823541C43F10005C1E9084501259F
:103680002846BDE8F081124ED6E90A23501C43F1CA
:103690000001C6E90A012046FFF7D2FED6E90C2355
:1036A000571C43F10008C6E90C780028ADD0236808
:1036B000FF225A6204236377D6E90E23541C43F198
:1036C0000005C6E90E450125DAE70125D8E700BF68
:1036D000983C00202DE9100800210BE00E4CD4E9A5
:1036E000002312F1010B43F1000CC4E900BC0131CD
:1036F0000A38C0B20928F1D8074CD4E9022312F1E4
:10370000010B43F1000CC4E902BC0901C9B2084332
:10371000BDE81008704700BFE03C00202DE9F041F3
:103720005E4BD3E90045661C45F10007C3E900671D
:10373000037F012B00F0B08001230377022343773E
:10374000BAB9564BD3E90245661C45F10007C3E9F7
:1037500002674B7813F0100F0BD003F0EF030A331E
:103760004B704E4BD3E90445661C45F10007C3E995
:1037700004670E460446002A43D1C878FFF7AAFF23
:1037800005047078FFF7A6FF45EA0025B078FFF73B
:10379000A1FF2843357840EA45354049D1E9062361
:1037A000561C43F10007C1E906672368CA225A6222
:1037B000236853225A622046FFF78AFE06460028F5
:1037C00032D1236825F07F4525F0C0055D60226871
:1037D000D36823F08003D36023689B6813F0200F25
:1037E00035D02368FF225A620123637700232377B1
:1037F0002A49D1E91223541C43F10005C1E91245BD
:1038000022E0CB784878000240EA03408B781843E6
:103810000D7840EA45352149D1E90823561C43F18A
:103820000007C1E90867C0E72368FF225A62042342
:103830006377002323771949D1E90A23541C43F104
:103840000005C1E90A4501263046BDE8F081134D67
:10385000D5E90C23501C43F10001C5E90C012046B9
:10386000FFF7EEFDD5E90E23571C43F10008C5E92B
:103870000E780028B5D02368FF225A6204236377AC
:10388000002323772946D5E91023541C43F1000572
:10389000C1E910450126D7E70226D5E7B03D002053
:1038A0002DE9F843674BD3E90067741C47F1000525
:1038B000C3E90045037F012B00F0C2800D4604469A
:1038C0000123037702234377002A5ED103689B68B4
:1038D00013F0400F09D10023CB705A49D1E90223DC
:1038E000561C43F10007C1E902672878FFF7F2FE92
:1038F00006046878FFF7EEFE46EA0026A878FFF790
:10390000E9FE3043EE7840EA06464E49D1E9042309
:10391000571C43F10008C1E904782368CA225A629F
:10392000236853225A622046FFF7D2FD074600283B
:103930004DD1236806F07F3626F0FE461E602268D1
:10394000936823F48023936021688B68EA68286970
:10395000024313438B602268D36823F08003D36053
:1039600023689B6813F0200F44D02368FF225A621B
:1039700001236377002323773249D1E91223541CB2
:1039800043F10005C1E9124531E003689B6813F07B
:10399000400F09D10023CB702A49D1E90623561CD8
:1039A00043F10007C1E906672B786878000240EA16
:1039B0000340AB781843EE7840EA06462149D1E946
:1039C0000823571C43F10008C1E90878A5E72368DC
:1039D000FF225A6204236377002323771949D1E930
:1039E0000A23541C43F10005C1E90A450127384662
:1039F000BDE8F883134DD5E90C23501C43F10001B9
:103A0000C5E90C012046FFF71BFDD5E90E2312F195
:103A1000010843F10009C5E90E890028A5D02368F3
:103A2000FF225A6204236377002323772946D5E9CE
:103A30001023541C43F10005C1E910450127D6E7C6
:103A40000227D4E7003E002008B50248FDF706FE35
:103A500008BD00BFB012002008B5FDF7E5FD08BDA8
:103A600008B50248FDF7FAFD08BD00BF1C1500208F
:103A700008B5FDF7D9FD08BD2DE93008104BD3E995
:103A8000004514F1010B45F1000CC3E900BCAAB9D3
:103A900013460B4AD2E9024514F1010B45F1000C23
:103AA000C2E902BC027801248C408B40DBB222EADE
:103AB00004010B430370BDE8300870470123F1E7B0
:103AC0002043002038B5032819D002282DD0012822
:103AD0004FD03A4CD4E91023501C43F10001C4E903
:103AE000100100224FF420413548FEF7EBFBD4E9EA
:103AF0001623501C43F10001C4E9160138BD2F4CB8
:103B0000D4E90423501C43F10001C4E9040101225B
:103B10004FF420412A48FEF7D5FBD4E90623501C78
:103B200043F10001C4E90601E8E7244CD4E9082385
:103B3000501C43F10001C4E90801214D01224FF45A
:103B400000512846FEF7BEFBD4E90A23501C43F17E
:103B50000001C4E90A0100224FF400412846FEF7A3
:103B6000B1FBD4E90C23501C43F10001C4E90C0162
:103B7000C4E7124CD4E90E23501C43F10001C4E900
:103B80000E010F4D01224FF400412846FEF79AFB2B
:103B9000D4E91223501C43F10001C4E912010022B0
:103BA0004FF400512846FEF78DFBD4E91423501C36
:103BB00043F10001C4E91401A0E700BF2043002045
:103BC000000C02402DE9104883B0814CD4E9182341
:103BD000501C43F10001C4E9180100238DF807309F
:103BE00002217C48FEF750FBD4E91A2312F1010BA5
:103BF00043F1000CC4E91ABC012840D004217548E7
:103C0000FEF742FB7249D1E9262312F1010B43F181
:103C1000000CC1E926BC012868D002216D48FEF7DE
:103C200033FB6B49D1E9322312F1010B43F1000C54
:103C3000C1E932BC012800F09180002201210DF180
:103C40000700FFF719FF624CD4E93E23501C43F1F3
:103C50000001C4E93E01002211460DF10700FFF703
:103C60000BFF04F58074D4E90023501C43F10001DC
:103C7000C4E900019DF8070003B0BDE81088D4E94D
:103C80001C23501C43F10001C4E91C0104215148CC
:103C9000FEF7FAFAD4E91E2312F1010B43F1000CEE
:103CA000C4E91EBC0028A9D1D4E92023501C43F14B
:103CB0000001C4E92001012200210DF10700FFF7F6
:103CC000DBFED4E92223501C43F10001C4E92201A8
:103CD000002201210DF10700FFF7CEFED4E92423D5
:103CE000501C43F10001C4E92401C3E70C46D1E9AB
:103CF0002823501C43F10001C4E928010221354862
:103D0000FEF7C2FAD4E92A2312F1010B43F1000CA9
:103D1000C4E92ABC002880D1D4E92C23501C43F1EB
:103D20000001C4E92C01012211460DF10700FFF743
:103D3000A3FED4E92E23501C43F10001C4E92E0157
:103D4000002211460DF10700FFF796FED4E930235B
:103D5000501C43F10001C4E930018BE70C46D1E966
:103D60003423501C43F10001C4E9340104211948F3
:103D7000FEF78AFAD4E9362312F1010B43F1000C65
:103D8000C4E936BC01287FF458AFD4E93823501C6D
:103D900043F10001C4E93801012211460DF1070089
:103DA000FFF76AFED4E93A23501C43F10001C4E94D
:103DB0003A01012200210DF10700FFF75DFED4E971
:103DC0003C23501C43F10001C4E93C0152E700BF11
:103DD000204300200000024008B50248FDF73EFCE9
:103DE00008BD00BF2C19002008B5FDF71DFC08BD5B
:103DF0002DE9F0438BB0494DD5E90023501C43F128
:103E00000001C5E900010024059406940794089474
:103E100009940194424B1A6B42F004021A631A6B24
:103E200002F004020192019A02941A6B42F080029D
:103E30001A631A6B02F080020292029A03941A6BC0
:103E400042F001021A631A6B02F001020392039A14
:103E500004941A6B42F008021A631B6B03F0080308
:103E60000493049BDFF8C08022464FF47041404623
:103E7000FEF728FAD5E90223501C43F10001C5E9F9
:103E8000020101270597274B06930794DFF89C90C2
:103E900005A94846FEF74AF8D5E90423501C43F12A
:103EA0000001C5E90401062605960694079705A9B1
:103EB0004846FEF73BF8D5E90623501C43F10001C4
:103EC000C5E906014FF47043059306970794032351
:103ED000089305A94046FEF729F8D5E90823501CA8
:103EE00043F10001C5E90801224621463046FDF7AD
:103EF00047FFD5E90A23501C43F10001C5E90A0137
:103F00003046FDF78FFFD5E90C23501C43F100012B
:103F1000C5E90C010BB0BDE8F08300BF28440020C8
:103F20000038024000001110000C02400000024066
:103F300070B586B0284ED6E90E23501C43F100011F
:103F4000C6E90E010024019402940394049405949C
:103F50000094224D224B2B606C607F23AB60FF23CB
:103F6000EB602C616C61AC612846FFF705FBD6E97C
:103F70001023501C43F10001C6E9100123238DF8E2
:103F8000043059238DF805308DF8063004940594DB
:103F9000012201A92846FFF783FCD6E91223501C11
:103FA00043F10001C6E9120101228DF800208DF8CD
:103FB00001208DF8022019238DF803306946284628
:103FC000FFF7ACFBD6E91423501C43F10001C6E90E
:103FD000140106B070BD00BF28440020E045002059
:103FE0000028004070B598B0364DD5E91623501C16
:103FF00043F10001C5E91601302200210DEB02005A
:1040000000F04DFF00240794089409940A940B943F
:10401000039404940594069401942B4B1A6C42F07B
:1040200080521A641B6C03F080530193019B02942D
:10403000264B1A6842F480421A601B6803F48043DE
:104040000293029B09230C934FF4A0230D930123A9
:104050001193022612964FF48003139308231493AE
:10406000A82315931696042317930CA8FEF7A2F91C
:10407000D5E91823501C43F10001C5E918010F23AD
:104080000793089609944FF480530A930B94314692
:1040900007A8FEF7D1FED5E91A23501C43F1000111
:1040A000C5E91A0103964FF40073069303A8FFF7BE
:1040B00047F8D5E91C23501C43F10001C5E91C0158
:1040C00018B070BD28440020003802400070004045
:1040D00008B52D4CD4E91E23501C43F10001C4E95E
:1040E0001E012A4B2A4A1A60FDF770FDD4E92023ED
:1040F000501C43F10001C4E92001FFF773FFD4E92C
:104100002223501C43F10001C4E92201FFF770FE95
:10411000D4E92423501C43F10001C4E92401FFF732
:1041200007FFD4E92623501C43F10001C4E926010E
:10413000164D2B681968174A11601878FFF7C2FCF2
:10414000114CD4E92823501C43F10001C4E9280193
:104150002B685868FDF7A2FDD4E92A23501C43F1CF
:104160000001C4E92A01FFF72DFD84F8B8002B688F
:10417000023053F820302B60D4E92C23501C43F13B
:104180000001C4E92C01D3E728440020D8450020D1
:10419000B85E0008DC45002008B50248FDF75EFA6D
:1041A00008BD00BFBC19002008B5FDF73DFA08BDE9
:1041B0004DF804BD83B01149D1E9002312F1010B80
:1041C00043F1000CC1E900BC002100910C4B5A6C7A
:1041D00042F480425A645A6C02F480420092009A7F
:1041E00001911A6C42F080521A641B6C03F08053E8
:1041F0000193019B03B05DF804BB704700450020AC
:10420000003802404DF804BD0D49D1E9022312F1F6
:10421000010B43F1000CC1E902BC0268094B9A4250
:1042200002D05DF804BB7047074B01221A60D1E948
:10423000042312F1010B43F1000CC1E904BCF0E7C7
:1042400000450020002800403C0E474208B50248C7
:10425000FDF704FA08BD00BF841A002008B5FDF779
:10426000E3F908BD4DF804BD0549D1E9002312F179
:10427000010B43F1000CC1E900BC5DF804BB7047C1
:10428000284500204DF804BD0449D1E9022312F16C
:10429000010B43F1000CC1E902BCF5E72845002001
:1042A0004DF804BD0449D1E9042312F1010B43F197
:1042B000000CC1E904BCF5E7284500204DF804BD19
:1042C0000449D1E9062312F1010B43F1000CC1E9C5
:1042D00006BCF5E7284500204DF804BD0449D1E9A6
:1042E000082312F1010B43F1000CC1E908BCF5E70A
:1042F000284500204DF804BD0549D1E90A2312F1F3
:10430000010B43F1000CC1E90ABC5DF804BB704726
:10431000284500204DF804BD0549D1E90C2312F1D0
:10432000010B43F1000CC1E90CBC5DF804BB704704
:10433000284500204DF804BD0549D1E90E2312F1AE
:10434000010B43F1000CC1E90EBC5DF804BB7047E2
:104350002845002010B5094CD4E91023501C43F126
:104360000001C4E91001FDF76BFCD4E91223501CD5
:1043700043F10001C4E9120110BD00BF284500202F
:1043800010B5094CD4E91423501C43F10001C4E9D1
:1043900014010120FDF7C4FFD4E91623501C43F19A
:1043A0000001C4E9160110BD2845002008B50248E7
:1043B000FDF754F908BD00BF141B002008B5FDF738
:1043C00033F908BD4DF804BD1449D1E9002312F1B9
:1043D000010B43F1000CC1E900BC1149D1F8883050
:1043E00043F47003C1F888300E4B1A6842F00102A2
:1043F0001A60002098601A6822F0847222F48032D9
:104400001A60094A5A601A6822F480221A60D86039
:104410004FF000638B605DF804BB70478845002057
:1044200000ED00E0003802401030002408B50248DA
:10443000FDF714F908BD00BF6C1C002008B5FDF79E
:10444000F3F808BDDFF834D0002103E00C4B5B58D3
:10445000435004310B480C4B42189A42F6D30B4A96
:1044600002E0002342F8043B094B9A42F9D3FFF7DC
:10447000A9FF00F071FCFFF72BFE7047000002203F
:104480005C6E000800000020BC1E0020C01E002042
:1044900038560020FEE708B5062001F019FA012081
:1044A00001F0FCFC0A22002101F006BB70B50546B4
:1044B0000C4611B90026304670BD18B183690BB99E
:1044C00000F050F91F4B9C4232D16C68B4F90C30AB
:1044D000002BEFD02146284600F042F8236B064619
:1044E00033B1216A284698470028B8BF4FF0FF36FD
:1044F000A3891B0603D52169284600F0D9FC616B0E
:1045000041B104F14403994202D0284600F0D0FCA6
:1045100000236363A16C21B1284600F0C9FC00238D
:10452000A36400F08BF90023A38100F088F9C2E7AF
:10453000054B9C4201D1AC68C8E7044B9C4208BFC4
:10454000EC68C3E7386C0008586C0008186C000869
:10455000024B01461868FFF7A9BF00BFE81C002006
:104560008A892DE9F041054610070C4658D44B685E
:10457000002B05DC0B6C002B02DC0020BDE8F08179
:10458000E66A002EF9D0002312F480522F68216AC7
:104590002B6032D0606DA3895A0705D56368C01AB5
:1045A000636B0BB1236CC01A00230246E66A216AD2
:1045B0002846B047431CA38906D129681D2948D83D
:1045C000294ACA40D60744D500226260D90422692C
:1045D000226004D5421C01D12B6803B96065616B70
:1045E0002F600029C9D004F14403994202D0284623
:1045F00000F05EFC00206063C0E701232846B0475E
:10460000411CC8D12B68002BC5D01D2B01D0162B07
:1046100001D12F60B1E7A38943F04003A381ADE747
:104620000F69002FA9D093070E6808BF4B690F6070
:1046300018BF0023A6EB07088B60B8F1000F9CDDC4
:1046400043463A46216AA66A2846B047002806DC57
:10465000A38943F04003A3814FF0FF308EE7074466
:10466000A8EB0008E9E700BF0100402038B50B695E
:1046700005460C46DBB118B183690BB900F072F83E
:104680000C4B9C4209D16C68B4F90C307BB12146CB
:104690002846BDE83840FFF763BF074B9C4201D175
:1046A000AC68F1E7054B9C4208BFEC68ECE70020E2
:1046B00038BD00BF386C0008586C0008186C000842
:1046C000014620B9044B0549186800F083BA044B31
:1046D0001868FFF7CBBF00BF786C00086D46000874
:1046E000E81C0020002310B50446C0E900338360B5
:1046F00081814366C281C0E904338361194608227F
:104700005C3000F0CCFB054B6362054BA362054BAC
:10471000E362054B2462236310BD00BF0959000802
:104720002B5900086359000887590008014900F017
:1047300051BA00BF6D46000870B54A1E6825554342
:104740000E4605F1740100F001FC044640B1002161
:10475000C0E900160C30A06005F1680200F09FFB74
:10476000204670BD836910B5044633BBC0E91233DF
:104770000365124B124A1B688262984204BF0123F0
:10478000836100F01FF86060204600F01BF8A06015
:10479000204600F017F80022E06004216068FFF76F
:1047A000A1FF01220921A068FFF79CFF022212212C
:1047B000E068FFF797FF0123A36110BD786C000844
:1047C0002D470008F8B51B4B1E68B369074613B99F
:1047D0003046FFF7C7FF4836D6E90134013B03D521
:1047E000336833B13668F7E7B4F90C506DB168340B
:1047F000F4E704213846FFF79FFF30600028F1D12D
:104800000C233B6004462046F8BD0B4B6566C4E9AB
:104810000055A560C4E90335C4E9055508222946B9
:1048200004F15C0000F03BFBC4E90D55C4E91255EE
:10483000E9E700BF786C00080100FFFF7047704790
:10484000F7B50F46114601AA054601F02FFA0646B4
:1048500018B90024204603B0F0BD2846FFF7B2FF88
:1048600004460028F5D04FF4DB73019A39462846F8
:1048700000F098FE002806DA0025FFF7DFFFA5818B
:10488000FFF7DDFFE5E70A4B63620A4BA3620A4BC1
:10489000E3620A4B2363F305E081A6812462D9D544
:1048A000022300222146284600F082F8D2E700BF0A
:1048B000095900082B590008635900088759000856
:1048C000024B0A4601461868FFF7BABFE81C0020F1
:1048D0000EB403B5014603AB054853F8042B00683A
:1048E000019300F0B7FB02B05DF804EB03B0704732
:1048F000E81C00202DE9F84F15465D430746894620
:1049000093469A460A9C3BD018B183690BB9FFF7CE
:1049100029FF1D4B9C4216D17C686368002B01DA8D
:10492000002363602E46D4E90018B04515D3324603
:10493000484600F0A9FA636825689B1B354425604A
:10494000636055461CE0114B9C4201D1BC68E4E712
:104950000F4B9C4208BFFC68DFE74846424600F028
:1049600093FA23684344236021463846C144A6EBAA
:10497000080600F033FE0028D5D0AD1BB5FBFBF5D3
:104980002846BDE8F88F00BF386C0008586C000856
:10499000186C000807B5009313460A460146034801
:1049A0000068FFF7A7FF03B05DF804FBE81C0020D8
:1049B00000F00AB813460A4601460248006800F0B3
:1049C00003B800BFE81C00202DE9F8430C469146CF
:1049D0001E46054618B183690BB9FFF7C3FE3F4B6E
:1049E0009C4212D16C68A38903F48473B3F5847F6D
:1049F00003D121462846FFF739FED4F82C80B8F1C0
:104A0000000F0CD11D232B6057E0354B9C4201D188
:104A1000AC68E8E7334B9C4208BFEC68E3E7012E43
:104A200030D0022E01D0002E55D123691BB921466A
:104A3000284600F0D9F921462846FFF717FE074619
:104A400000283AD133464A46216A2846C0470130F9
:104A500033D0616B41B104F14403994202D028463E
:104A600000F026FA0023636323692360A3890021F1
:104A700023F402636160A381082204F15C0000F06A
:104A80000EFA1CE021462846FFF7F0FDA28912F439
:104A900080520CD0606DA3895A0713D56368C01A81
:104AA000636B0BB1236CC01A81440026BDE7216AF9
:104AB00033462846C047411CEDD14FF0FF373846FA
:104AC000BDE8F8831B07EFD523682269002BEBD0E4
:104AD0009B1A1844E8E7162395E700BF386C0008D6
:104AE000586C0008186C0008024B0146186800F06A
:104AF00003B800BFE81C002070B50C46054618B18D
:104B000083690BB9FFF72EFE214B9C4207D16C68DD
:104B1000E66A76B91D232B604FF0FF3070BD1D4B48
:104B20009C4201D1AC68F3E71B4B9C4208BFEC6888
:104B3000EEE7A28902F00C03082B19D12368BBB160
:104B400021695B1A002B13DDD00511D50223002249
:104B5000216A2846B047411CDED0A3895A070ED5EA
:104B60006368C01A636B002BD8D0236CC01AD5E7DA
:104B700012F4805201D0606DEFE70123E8E71B07D4
:104B8000CCD52368002BC9D022699B1A1844C5E7ED
:104B9000386C0008586C0008186C00082DE9F041CA
:104BA000884600F14804002614B93046BDE8F0817B
:104BB000D4E90175013F01D52468F5E7AB89012BE4
:104BC00006D9B5F90E30013302D02846C047064356
:104BD0006835EFE72DE9F8438046894600F148043F
:104BE000002614B93046BDE8F883D4E90175013FC9
:104BF00001D52468F5E7AB89012B07D9B5F90E304B
:104C0000013303D029464046C84706436835EEE7DE
:104C10002DE9F843089C8946174602FB03F806462F
:104C200018B183690BB9FFF79DFD1D4B9C421AD14A
:104C30007468A3891B0720D52369F3B10025454576
:104C400029D0A36819F80510013B002BA36004DAF2
:104C5000A269934219DB0A2917D023685A1C2260E3
:104C600019700135EBE70F4B9C4201D1B468E0E7C6
:104C70000D4B9C4208BFF468DBE72146304600F04C
:104C800095FF0028DAD0002505E02246304600F0E6
:104C900029FF0130E5D1B5FBF7F0BDE8F88300BF8F
:104CA000386C0008586C0008186C000807B50093B1
:104CB00013460A46014603480068FFF7A9FF03B000
:104CC0005DF804FBE81C002007B5044B014601AA6F
:104CD000186800F005F803B05DF804FBE81C00203C
:104CE0002DE9F84F07468B46904600F0DDFF194B43
:104CF0001D689A463DB15C46234613F8012B2AB342
:104D00003D2A1C46F8D1384600F0CFFF0020BDE810
:104D1000F88F4D46A94659F8040B0028F3D02246D7
:104D2000594600F03CFE0028F3D159F8043C1E1906
:104D30001B5D3D2BEDD1DAF80030ED1AAD10384691
:104D4000C8F8005000F0B1FF701CE0E7A4EB0B04C2
:104D5000E0E700BF4C1D002070B50D4E0D4CA41BAC
:104D6000A4100025A54209D10B4E0C4C01F098F877
:104D7000A41BA4100025A54205D170BD56F825300E
:104D800098470135EEE756F8253098470135F2E7A8
:104D9000C46D0008C46D0008C46D0008106E0008E2
:104DA00070B50E46B1F90E10002996B014461D4696
:104DB00007DA00232B60B3891A0610D44FF48063FE
:104DC0000EE06A4600F0A8FF0028F2DB019A02F428
:104DD0007042A2F500535A425A412A60EEE740233E
:104DE0000020236016B070BD8B8973B59D07064601
:104DF0000C4607D504F14703236023610123636157
:104E000002B070BD01AB6A46FFF7CAFF00990546C4
:104E1000304600F09BF848B9B4F90C309A05EFD44D
:104E200023F0030343F00203A381E3E70D4BB362D6
:104E3000A389206043F08003A381009B6361019BF1
:104E400020615BB1B4F90E10304600F077FF28B155
:104E5000A38923F0030343F00103A381A3891D4326
:104E6000A581CDE72D470008024B0146186800F0E8
:104E70006DB800BFE81C0020024B0146186800F026
:104E800017B800BFE81C002010B5431E0A44914229
:104E900000D110BD11F8014B03F8014FF7E70244B0
:104EA0000346934200D1704703F8011BF9E7000065
:104EB00038B50546002945D051F8043C0C1F002B9D
:104EC000B8BFE41800F072FF1F4A1368104633B9E8
:104ED000636014602846BDE8384000F068BFA34214
:104EE0000CD921686218934204BF1A685B6863603A
:104EF00004BF521822600460ECE713465A680AB1F6
:104F0000A242FAD919685818A0420BD1206801446E
:104F1000581882421960DDD1106852685A60014405
:104F20001960D7E702D90C232B60D3E7206821183A
:104F30008A4204BF11685268626004BF0918216088
:104F40005C60C7E738BD00BFC445002070B5CD1C0C
:104F500025F0030508350C2D38BF0C25002D06461D
:104F600001DBA94203D90C233360002070BD00F09F
:104F70001DFF214A1468214691B9204C23681BB9B2
:104F8000304600F0B7FB20602946304600F0B2FB07
:104F9000431C24D10C233360304600F008FFE4E7C3
:104FA0000B685B1B18D40B2B0FD90B60CD50CC18A2
:104FB000304600F0FCFE04F10B00231D20F007003A
:104FC000C31AD3D05A42E250D0E78C424B6816BF86
:104FD000636013600C46EBE70C464968CCE7C41CE1
:104FE00024F00304A04205D0211A304600F082FBD1
:104FF0000130CFD02560DBE7C4450020C845002044
:105000009368013B002B10B4936008DA9469A342C3
:1050100001DB0A2903D15DF8044B00F063BD13687E
:10502000581C1060197008465DF8044B7047F8B5BD
:1050300006460F461446D518AC4201D1002007E0C1
:105040003A4614F8011B3046FFF7DAFF431CF3D150
:10505000F8BD00002DE9F04F0C469DB017461D46E7
:10506000064618B183690BB9FFF77CFB7C4B9C4269
:1050700058D17468A38918075ED52369002B5BD0CB
:105080000023099320238DF8293030238DF82A300E
:1050900003954FF0010BB846454615F8013B0BB19F
:1050A000252B54D1B8EB070A0BD053463A4621467C
:1050B0003046FFF7BCFF013000F0C280099B53442B
:1050C000099398F80030002B00F0BA8000234FF0CD
:1050D000FF32CDE90523049307938DF853301A93DB
:1050E000A846052218F8011B5E48FCF7D1FC049B7A
:1050F00078BBD90644BF20228DF853201A0744BF3D
:105100002B228DF853202A782A2A2AD0079AA846DB
:1051100000200A25414611F8013B303B092B69D993
:1051200060B324E0504B9C4201D1B468A2E74F4BDE
:105130009C4208BFF4689DE72146304600F036FDEA
:1051400000289DD04FF0FF301DB0BDE8F08FA8467D
:10515000A2E7444A801A0BFA00F01843049045462F
:10516000BEE7039A111D12680391002A01DB079222
:1051700004E0524243F002030792049398F800308F
:105180002E2B0ED198F801302A2B38D1039B1A1DF3
:105190001B680392002BB8BF4FF0FF3308F10208E1
:1051A0000593334D98F8001003222846FCF770FC55
:1051B00040B14023401B03FA00F0049B034308F175
:1051C0000108049398F800102A488DF82810062248
:1051D00008F10107FCF75CFC002837D0264B1BBB0D
:1051E000039B073323F0070308330393099B4B44C6
:1051F000099350E705FB0232012088468AE7002325
:1052000008F10108059319460A25404610F8012BBC
:10521000303A092A03D9002BC3D00591C1E705FB19
:10522000012101238046F0E703AB00932246134B94
:1052300004A93046AFF30080B0F1FF3F8146D5D1DD
:10524000A3895B063FF57EAF09987DE703AB00932A
:1052500022460A4B04A9304600F092F8ECE700BF62
:10526000386C00087C6C0008586C0008186C00084A
:10527000826C0008866C0008000000002F500008B7
:1052800013460A46014602480068FFF7E3BE00BF26
:10529000E81C00202DE9F04791461F468A680B69FB
:1052A000DDF820809342B8BF1346C9F8003091F86A
:1052B000432006460C4612B10133C9F8003023687A
:1052C000990642BFD9F800300233C9F8003025688A
:1052D00015F0060507D104F1190AE368D9F8002092
:1052E0009B1AAB4228DC94F843302268003318BF85
:1052F000012392062DD404F1430239463046C047BB
:10530000013020D02368E568D9F8002003F00603B7
:10531000042B08BFAD1AA36822690CBF25EAE57506
:1053200000259342C4BF9B1AED184FF000091A34B0
:105330004D451AD1002008E0012352463946304637
:10534000C047013003D14FF0FF30BDE8F087013591
:10535000C3E7E1185A1C302081F84300224494F836
:10536000451082F843100233C5E70123224639462F
:105370003046C0470130E6D009F10109D8E7000006
:105380002DE9F04301F1430C0C46097E85B06E29EE
:105390001746064698460C9A00F0B38022D8632937
:1053A00036D00AD8002900F0B980582900F083804F
:1053B00004F1420584F8421032E0642901D06929E1
:1053C000F6D120681368050603F104012AD51B688D
:1053D0001160002B03DA2D225B4284F843206F48D2
:1053E0000A2239E0732900F09D8008D86F2920D067
:1053F0007029DDD1236843F02003236003E0752981
:1054000017D07829D4D1782384F84530644855E002
:105410001368191D1B68116004F1420584F84230BD
:1054200001238CE01B68116010F0400F18BF1BB205
:10543000CFE713682568181D1060280601D51B6882
:1054400002E06806FBD51B8854486F2914BF0A2266
:105450000822002184F843106568A560002DC0F281
:105460009580216821F004012160002B3DD1002DA1
:1054700040F08E806546082A0BD12368DB0708D5EB
:10548000236962689A42DEBF302305F8013C05F1CA
:10549000FF35ACEB05032361CDF800803B4603AA42
:1054A00021463046FFF7F6FE01304DD14FF0FF3078
:1054B00005B0BDE8F083394884F8451013682168C9
:1054C0001D1D1B6815600A060BD5CA0744BF41F0B5
:1054D000200121601BB9226822F0200222601022E4
:1054E000B7E74D0648BF9BB2EFE76546B3FBF2F165
:1054F00002FB1133C35C05F8013D0B460029F5D1D1
:10550000B9E7136825686169181D106028061B68D3
:1055100001D5196002E06A06FBD5198000232361DA
:105520006546B9E71368191D11601D68626800219E
:105530002846FCF7ADFA08B1401B60606368236140
:10554000002384F84330A7E723692A4639463046CA
:10555000C0470130AAD023689B0713D4E068039B9F
:105560009842B8BF1846A3E701234A463946304659
:10557000C04701309AD00135E368039A9B1AAB42C9
:10558000F2DCEBE7002504F11909F5E7002BACD1BB
:10559000037884F8423004F142056CE78D6C000812
:1055A0009E6C000838B5074C054608461146002297
:1055B00022601A4600F04CFC431C02D1236803B160
:1055C0002B6038BD34560020838903F00903092B72
:1055D00001D1FFF775B8002070470000F8B50C4600
:1055E000054618B183690BB9FFF7BCF83C4B9C42E8
:1055F0000AD16C68B4F90C200023636093B29E0654
:105600000CD54FF0FF3067E0364B9C4201D1AC68BF
:10561000F0E7354B9C4208BFEC68EBE7580749D4EC
:10562000D90605D4092342F040022B60A281E8E7A5
:105630001A070BD521462846FFF718F80028E0D1B5
:10564000A389A06023F00803A381A061A38943F08C
:105650000403A38123691BB921462846FFF7C4FB35
:10566000B4F90C70BEB2B3070FD00123A3811F4B56
:105670001F49186806F00906FFF790FA092EA7815E
:1056800003D121462846FEF76BFF22692260666A35
:105690006369216A2846B047002860601DDCB4F9C0
:1056A0000C3017BF002243F0200343F04003626038
:1056B000A381A6E7616B0029CCD004F14403994291
:1056C00002D02846FFF7F4FB236C63600020606380
:1056D000002BBFD0E36B2360F8BD0020FCE700BFC8
:1056E000386C0008586C0008186C0008786C0008CA
:1056F000C955000838B5064C002305460846236006
:1057000000F0B6FB431C02D1236803B12B6038BD07
:105710003456002000294FF480630CBF022200227F
:1057200000F000B82DE9F7431D46514B1E680446B2
:105730000F46904626B1B36913B93046FFF712F809
:105740004C4B9C4252D17468B8F1020F06D0B8F1AC
:10575000010F00F28980002DC0F28680214630467C
:10576000FEF784FF616B41B104F14403994202D01A
:105770003046FFF79DFB002363630023A361636052
:10578000A3891B0603D521693046FFF791FBA38946
:1057900023F44A6323F00303B8F1020FA3815DD021
:1057A00001AB6A4621463046FFF7FAFAA38918434F
:1057B000A0812DBB009D2846FFF756FB0746002819
:1057C0004ED1DDF80090A9453CD14FF0FF30A389C0
:1057D00043F00203A3810023A36004F14703236085
:1057E00023610123636103B0BDE8F083224B9C4237
:1057F00001D1B468A8E7214B9C4208BFF468A3E735
:10580000002FD8D0B36913B93046FEF7ABFFB8F11B
:10581000010F08BFA389276004BF43F00103A381E0
:10582000A38913F00800C4E904751BD013F001002C
:1058300018BF6D424FF000031DBFA360A56118465D
:10584000A560D0E74846FFF70FFB07460028BCD00D
:10585000A38943F08003A3814D46D3E70020B6E738
:10586000A946F5E7A060BEE74FF0FF30BBE700BFF9
:10587000E81C0020386C0008586C0008186C000800
:105880001F2938B504460D4604D9162303604FF08E
:10589000FF3038BD426C12B152F821304BB920466E
:1058A00000F030F82A4601462046BDE8384000F0B6
:1058B00017B8012B0AD0591C03D11623036001200D
:1058C000E7E7002442F82540284698470020E0E713
:1058D000024B01461868FFF7D3BF00BFE81C002049
:1058E00038B5074C0023054608461146236000F0F2
:1058F0009FFA431C02D1236803B12B6038BD00BF5F
:105900003456002000F084BA10B50C46B1F90E10E0
:1059100000F04EFA0028ABBF636DA3891B1823F477
:105920008053ACBF6365A38110BD2DE9F0411F46D4
:105930008B89DB0505460C46164605D50223002259
:10594000B1F90E1000F00EFAA389B4F90E1023F489
:105950008053A38132463B462846BDE8F04100F023
:1059600013B910B50C46B1F90E1000F0FBF9431C49
:10597000A38915BF606523F4805343F48053A3814A
:1059800018BFA38110BDB1F90E1000F07DB9034618
:1059900011F8012B03F8012B002AF9D1704710B53B
:1059A0006AB10139841810F8013B11F8012F9342B4
:1059B00003D1A04201D0002BF5D1981A10BD10469A
:1059C000FCE72DE9F0478046894692461E460F4681
:1059D0003D46089815F8014B00F0C0F92044437883
:1059E00013F0080332D12D2C32D17C78BD1C01225A
:1059F000002E5DD0102E09D1302C07D12B7803F06A
:105A0000DF03582B4FD16C7810260235002A14BFC3
:105A10004FF000416FF000410027B1FBF6FC384623
:105A200006FB1C1EA4F13003092B17D81C46A64206
:105A300023DD7B1C07D084451CD301D1A64519DB8F
:105A400000FB0640012715F8014BEBE72F46BFE7A7
:105A50002B2C04BFBD1C7C781A46C9E7A4F1410376
:105A6000192B01D8373CE2E7A4F16103192B04D8C4
:105A7000573CDCE74FF0FF37E5E77B1C08D12223DA
:105A8000C8F800300846BAF1000F07D1BDE8F0872A
:105A900002B14042BAF1000FF8D00FB105F1FF3961
:105AA000CAF80090F2E73024002EAFD10826ADE707
:105AB000302CA3D00A26A9E7084B37B51C68084D3F
:105AC000236A002B08BF2B46009313460A46014663
:105AD0002046FFF776FF03B030BD00BFE81C002072
